S00600004844521B
S3150049900065DE490051D8490079DB490037DB49001B
S3220049C03880B58EB00D900C91002001908DF82F000A9008210991089007908DF81B5E
S3220049C0550005900490039002900D98002800F0BC80FFE70C98002800F0B780FFE779
S3220049C0720D980068079007988069C0088DF81B006420C7F60000012100231A4601E7
S3220049C08FF047FE0C984068013040B1FFE79DF81B000C99496908440230089004E0BB
S3220049C0AC0C98406901300890FFE70C98039001200290099804900598089901396134
S3220049C0C9F30B000590059820F0405005900598022161F312400590049A059800214F
S3220049C0E6CFF6F87101EBC241C90C61F3D94005900D9802A900F05EFC8DF82F000CA0
S3220049C1039840680130D8B1FFE70C9804300390012002900C98007AC0000490049AC2
S3220049C12005980021CFF6F87101EBC241C90C61F3D94005900D9802A900F03FFC8DF9
S3220049C13DF82F00FFE79DF81B0001281CDBFFE70C9803909DF81B0002909DF81B00AA
S3220049C15A099948430490049A05980021CFF6F87101EBC241C90C61F3D94005900D5B
S3220049C1779802A900F01EFC8DF82F00FFE70C9840690A9988421ED9FFE70C980069D1
S3220049C19403900C984069029009980490049A05980021CFF6F87101EBC241C90C61E9
S3220049C1B1F3D9400590059840F4E02005900D9802A900F02FFE8DF82F00FFE7642090
S3220049C1CEC7F6000000220123194601F0A2FD03E001208DF82F00FFE79DF82F000EA3
S3220049C1EBB080BD80B586B000208DF8170004908DF80F008DF80E00029000F0B8FDE2
S3220049C20801464DF6A460C0F249008163806B20B9FFE701208DF81700FFE79DF81764
S3220049C2250090B9FFE79DF80E0001308DF80E004DF6A460C0F24900806B04900498BA
S3220049C2420068029066208DF80F0006E000208DF80E0001208DF81700FFE79DF80E9D
S3220049C25F00012816D1FFE74DF6A460C0F24900806B9DF80F106A46002313604FF017
S3220049C27CFF3201F031FA30B9FFE79DF80E0001308DF80E0006E000208DF80E000139
S3220049C299208DF81700FFE79DF80E0002281CD1FFE74DF6A460C0F24900806B0A219F
S3220049C2B601F099F890B9FFE79DF80E0001308DF80E0002990220487302996B20085E
S3220049C2D37302990320486102990820886106E000208DF80E0001208DF81700FFE73D
S3220049C2F09DF80E0003280AD1FFE700F07CF930B9FFE79DF80E0001308DF80E0006B2
S3220049C30DE000208DF80E0001208DF81700FFE79DF80E0004280DD1FFE700F0DCFF30
S3220049C32A48B9FFE79DF80E0001308DF80E0000208DF8170003E001208DF81700FFFE
S3220049C347E79DF8170006B080BD80B58AB00990089100208DF81F000690082005904C
S3220049C3640998002800F09680FFE70898002800F09180FFE700230493039302930123
S3220049C3819300936420C7F6000001211A4601F0C7FC08984068013028B1FFE70898DB
S3220049C39E40690230009004E00898406901300090FFE7089802900120019005980370
S3220049C3BB9004980099013961F30B000490049820F0405004900498022161F31240EF
S3220049C3D80490039A04980021CFF6F87101EBC241C90C61F3D9400490099801A900CD
S3220049C3F5F0E1FA8DF81F00089840680130D8B1FFE7089804300290012001900898CD
S3220049C412007AC0000390039A04980021CFF6F87101EBC241C90C61F3D9400490099B
S3220049C42F9801A900F0C2FA8DF81F00FFE708984069069988421FD9FFE70898006990
S3220049C44C029008984069019005980390039A04980021CFF6F87101EBC241C90C613B
S3220049C469F3D94004900498012161F312400490099801A900F0D2FC8DF81F00FFE73C
S3220049C4866420C7F6000000220123194601F045FC03E001208DF81F00FFE79DF81FF0
S3220049C4A3000AB080BD80B58AB00990089100208DF81F0006900820059009980028B5
S3220049C4C000F09180FFE70898002800F08C80FFE7002304930393029301930093640F
S3220049C4DD20C7F6000001211A4601F01BFC08984068013028B1FFE7089840690230D9
S3220049C4FA009004E00898406901300090FFE7089802900120019005980390049800C2
S3220049C51799013961F30B000490049820F0405004900498022161F312400490039A8C
S3220049C53404980021CFF6F87101EBC241C90C61F3D9400490099801A900F035FA8DF4
S3220049C551F81F00089840680130D8B1FFE7089804300290012001900898007AC0008D
S3220049C56E0390039A04980021CFF6F87101EBC241C90C61F3D9400490099801A90036
S3220049C58BF016FA8DF81F00FFE708984069069988421AD9FFE70898C0680290089835
S3220049C5A84069019005980390039A04980021CFF6F87101EBC241C90C61F3D9400400
S3220049C5C590099801A900F0F6F98DF81F00FFE76420C7F6000000220123194601F0EF
S3220049C5E29EFB03E001208DF81F00FFE79DF81F000AB080BD80B584B000208DF80FFE
S3220049C5FF008DF80E008DF80D00ADF80A008DF809008DF8080001F091F98DF80F00D2
S3220049C61C9DF80F00B8B9FFE74DF6A460C0F24900806B6A460121116005214FF0FFE3
S3220049C639320DF10E0300F0C0FF30B9FFE79DF8090001308DF8090003E001208DF8F0
S3220049C6560F00FFE79DF80900012815D1FFE74DF6A460C0F24900806B6A46012111E0
S3220049C6736035214FF0FF320DF10D0300F0A0FF20B9FFE700208DF80F00FFE79DF8AA
S3220049C6900F00C8B9FFE79DF80D0040F002008DF80D009DF80D10BDF80A000843ADF9
S3220049C6ADF80A00BDF80A109DF80E0040EA0120ADF80A0001208DF80800FFE79DF88A
S3220049C6CA0800012817D1FFE74DF6A460C0F24900806B6A460221116001214FF0FF34
S3220049C6E7320DF10A0300F0FAFF30B9FFE79DF8080001308DF8080003E001208DF80E
S3220049C7040F00FFE79DF8080002280FD1FFE74DF6A460C0F24900806B4FF48A6100EC
S3220049C721F064FE20B9FFE700208DF80F0003E001208DF80F00FFE79DF80F0004B011
S3220049C73E80BD80B586B0059000208DF8130020218DF812104DF6A461C0F249014925
S3220049C75B6A039106218DF80B108DF80A00059820B9FFE701208DF8130005E09DF88F
S3220049C7780A0001308DF80A00FFE79DF80A00012816D1FFE74DF6A460C0F24900804E
S3220049C7956B9DF80B106A46002313604FF0FF3200F09EFF30B9FFE79DF80A0001303B
S3220049C7B28DF80A0006E000208DF80A0001208DF81300FFE79DF80A00022810D1FFAF
S3220049C7CFE74DF6A460C0F24900806B0A2100F006FE30B9FFE79DF80A0001308DF8A7
S3220049C7EC0A0006E000208DF80A0001208DF81300FFE79DF80A00032816D1FFE74DBF
S3220049C809F6A460C0F24900806B9DF81210039AEC460023CCF8003000F060FF30B90E
S3220049C826FFE79DF80A0001308DF80A0006E000208DF80A0001208DF81300FFE79D90
S3220049C843F80A00042811D1FFE74DF6A460C0F24900806B47F28071C0F28E6100F0AB
S3220049C860C5FD20B9FFE700208DF8130003E001208DF81300FFE79DF8130006B080D3
S3220049C87DBD80B592B0119000218DF843104DF6A460C0F24900426A0F92826A0E9266
S3220049C89A8DF827100891079106910591049181690D9141690C9100690B900D980CFF
S3220049C8B799B0FBF1F00A900F98119908440B990A9A51430C9A5143884204D9FFE716
S3220049C8D401208DF84300FFE7119878B1FFE79DF8430058B9FFE79DF8270001308D28
S3220049C8F1F827004FF48070089008980790FFE700200690FFE79DF82700012805D17D
S3220049C90EFFE700F0ECFF8DF84300FFE79DF84300A0BBFFE70F980899B0FBF1F0055C
S3220049C92B900F981199084401380899B0FBF1F0049005980499884209D0FFE7089816
S3220049C9480F9AB2FBF0F14143891A0844079004E011980699401A0790FFE768460190
S3220049C965F033FA0F9802900E980699084401900798009000980199029A039B00F063
S3220049C9828DFF8DF84300FFE79DF8430048B9FFE707990F9808440F900799069808D8
S3220049C99F44069000E005E0FFE7069811998842AAD3FFE79DF8430012B080BD80B526
S3220049C9BC8CB00B900A91002000908DF827000890079005900490039002908DF80738
S3220049C9D9000A988068082806D8FFE70A98406808900120069005E00A984068079015
S3220049C9F604200690FFE7FFE70A98006801286FDBFFE700208DF827000290069801EF
S3220049CA132807D1FFE708980078029008980130089006E0079800680290079804306C
S3220049CA300790FFE70B9802A901F015F88DF807009DF8070030B9FFE79DF82700011D
S3220049CA4D308DF8270006E000208DF8270001208DF80700FFE79DF82700012812D194
S3220049CA6AFFE70B9801F03BF968B9FFE79DF8270001308DF827000A98C1684820C718
S3220049CA87F6000001F0D5F906E000208DF8270001208DF80700FFE79DF82700022863
S3220049CAA417D1FFE70B9801F01DF990B9FFE79DF8270001308DF827004820C7F600C1
S3220049CAC10001F0B1F90A99C860069A0A990868801A086006E000208DF8270001201B
S3220049CADE8DF80700FFE78BE79DF807000CB080BD80B58CB00B9000200A9009908D87
S3220049CAFBF817000B98002862D0FFE70B98006802900298006A01900298007B0790FF
S3220049CB1802984069431E5420C7F6000000904FF44071082201F0F8F8009802998991
S3220049CB3569C90804910299896901F007010391039B4FF0F851182201F0E8F80098E2
S3220049CB52049B4FF440610A2201F0E1F80098079BFF21002201F0DBF802988068023A
S3220049CB6F280AD1FFE75420C7F600004FF440510C22032301F0CDF800E0FFE7019803
S3220049CB8C806800F1E040069006980990019840680A90019800680890FFE70898700D
S3220049CBA9B1FFE7099800780A9908700A9801300A900998013009900898013808900C
S3220049CBC6EEE703E001208DF81700FFE79DF817000CB080BD80B58EB00D904DF6A40C
S3220049CBE360C0F24900416A0B910D990A914AF21001C0F24901099100218DF8231047
S3220049CC00806B0C900C98002849D0FFE749F21000C0F24900029000200390FFE70302
S3220049CC1D980A9988420BD2FFE70299FF200870029801300290FFE70398013003900F
S3220049CC3AEFE704A8019001F0C5F801990B980690099805900A9804904DF6A460C087
S3220049CC57F24900806B00F0A0FD8DF823009DF82300C0B9FFE705990A9A49F2100072
S3220049CC74C0F2490000F076FB8DF823009DF82300012804D1FFE700208DF8230003E9
S3220049CC91E003208DF82300FFE7FFE703E001208DF82300FFE79DF823000EB080BD7B
S3220049CCAE704780B584B08DF80F000020029001208DF807004DF6A461C0F24901C8FB
S3220049CCCB6A496B884207D2FFE74DF6A460C0F24900C06A029006E04DF6A460C0F279
S3220049CCE84900406B0290FFE7FFF7DDFF9DF80F00013801460091042823D80099DF4E
S3220049CD05E801F003090F151B00029800F032F98DF807001BE00298FFF710FD8DF840
S3220049CD22070015E0029800F0C3F98DF807000FE00298FFF7A3FD8DF8070009E00241
S3220049CD3F98FFF74BFF8DF8070003E001208DF80700FFE79DF8070020B9FFE70298B9
S3220049CD5C00F088FB06E09DF80F009DF8071000F055F9FFE700F0EFFF04B080BD804F
S3220049CD79B586B0059000208DF8130003900290019005984DF6EC61C0F249010968C6
S3220049CD96884204D3FFE701208DF8130008E005994DF6E860C0F2490000EB81000277
S3220049CDB390FFE79DF8130068B9FFE70298006801900198C069012804D1FFE7012095
S3220049CDD08DF81300FFE7FFE79DF8130048B9FFE7029801990860029800F072F88DE7
S3220049CDEDF81300FFE79DF8130030B9FFE701990120C86102980390FFE79DF81300D3
S3220049CE0A40B1FFE7029820B1FFE7029800F0C8FFFFE7FFE7039806B080BD80B58A2A
S3220049CE27B00990089100200790069004900390029001908DF80300089880680828E6
S3220049CE4406D8FFE70898406807900120059005E008984068069004200590FFE7FFC8
S3220049CE61E70898006878B3FFE70898C1684820C7F6000000F0E0FF099800F035FFE3
S3220049CE7E099801A900F0A7FD8DF803000598012807D1FFE70198079908700798010C
S3220049CE9B30079006E0019806990860069804300690FFE74820C7F6000000F0B8FFC4
S3220049CEB80899C860059A08990868801A0860CCE79DF803000AB080BD80B586B005E1
S3220049CED59001238DF81330059800680390059802900398022282601020C7F6000020
S3220049CEF20C2100F014FF4420C7F6000000F093FF0190019820F00500019001982078
S3220049CF0FF002000190019820F018000190029800F0E3FE8DF813009DF8130008BB73
S3220049CF2CFFE701994420C7F6000000F07FFF02984DF6A461C0F24901096C00F0D374
S3220049CF49FA40B9FFE70320009000F015FF009800F08DFEFFE76420C7F60000002290
S3220049CF660123194600F0D9FEFFE79DF8130006B080BD80B58CB00B904DF6A460C081
S3220049CF83F24900416A09910B9908914BF21001C0F249010791816A069100218DF87B
S3220049CFA01710806B0A900A9870B3FFE70B9858B3FFE701A8009000F00AFF00990966
S3220049CFBD98039007980290089801904DF6A460C0F24900806B00F0B7F88DF8170013
S3220049CFDA9DF8170088B9FFE706980299089A00F0BEF9012804D1FFE700208DF817F6
S3220049CFF70003E002208DF81700FFE700E0FFE703E001208DF81700FFE79DF817004F
S3220049D0140CB080BD80B582B08DF807008DF806109DF80600032805D0FFE79DF8060D
S3220049D03100022828D1FFE74DF6A461C0F24901012081F82000002081F82200C863A6
S3220049D04E9DF80700052801D1FFE707E04DF6A461C0F24901042081F82100FFE74DD9
S3220049D06BF6A460C0F24900406838B1FFE74DF6A460C0F2490040688047FFE712E064
S3220049D0889DF8070000F0D4FD4DF6A460C0F24900406838B1FFE74DF6A460C0F249E4
S3220049D0A50040688047FFE7FFE702B080BD80B58EB00D9000208DF833004DF6A460C6
S3220049D0C2C0F24900416A0B91816A0A9181690991416908910069079009980899B081
S3220049D0DFFBF1F006900B980D9908440799069A5143089A5143884204D9FFE7012026
S3220049D0FC8DF833001CE00D98A8B1FFE702A8019000F05FFE01990B9804900A980332
S3220049D119900D9802904DF6A460C0F24900806B00F00CF88DF8330003E001208DF881
S3220049D1363300FFE7FFE79DF833000EB080BD80B58AB00990089101208DF81F000065
S3220049D153208DF81E00099830B1FFE79DF81E0001308DF81E00FFE79DF81E000128FC
S3220049D1702CD1FFE701A800F052FC38BBFFE70998006800900098007B8DF804000873
S3220049D18D9880680290009840698DF80C000898406805900898006806904DF6A46090
S3220049D1AAC0F24900806B01A9FEF741FF20B9FFE700208DF81F0003E001208DF81F29
S3220049D1C700FFE7FFE79DF81F000AB080BD80B586B00590049100208DF80F008DF8B7
S3220049D1E40E008DF80D000498029005208DF80D00FFE705989DF80D106B4601221A37
S3220049D201604FF0FF320DF10E0300F0DAF98DF80F000298013802909DF80F0030B999
S3220049D21EFFE79DF80E008007002801D5FFE704E0FFE702980028DFD1FFE79DF80EEB
S3220049D23B008007002804D5FFE700208DF80F0003E001208DF80F00FFE79DF80F0043
S3220049D25806B080BD80B582B000208DF807009DF8070001308DF807009DF80700016E
S3220049D2752830D1FFE74DF6A460C0F2490090F82100022827D1FFE74DF6A460C0F252
S3220049D292490090F822000146009105281AD80099DFE801F01703070B0F130120FF87
S3220049D2AFF7FFFC11E00220FFF7FBFC0DE00320FFF7F7FC09E00420FFF7F3FC05E051
S3220049D2CC0520FFF7EFFC01E000E0FFE7FFE700F032FA02B080BD80B58AB000208D3C
S3220049D2E9F82700FF218DF813104FF0FF31039102909F208DF81300032002904DF60E
S3220049D306A460C0F24900806B9DF81310039A029BEC46CCF8003005AB00F050F98D43
S3220049D323F827009DF82700C8B9FFE79DF8140008909DF815109DF8160040EA01206B
S3220049D34007900898C2280AD0FFE7079842F21531884204D0FFE701208DF82700FF37
S3220049D35DE7FFE79DF827000AB080BD89B008900791069200200590012104918DF8F2
S3220049D37A0F0008990291079901910590FFE70599069A00209142009006D2FFE704D4
S3220049D39798002818BF01200090FFE70098C007A8B1FFE70298007801990978884267
S3220049D3B403D0FFE700200490FFE7029801300290019801300190FFE7059801300549
S3220049D3D190D9E70498012804D1FFE701208DF80F00FFE79DF80F0009B0704780B53C
S3220049D3EE86B00590049100208DF80F008DF80E008DF80D000498029005208DF80DB5
S3220049D40B00FFE705989DF80D106B4601221A604FF0FF320DF10E0300F0CEF88DF878
S3220049D4280F000298013802909DF80F0028B9FFE79DF80E00C00708B9FFE704E0FFC5
S3220049D445E702980028E0D1FFE79DF80E00C00720B9FFE700208DF80F0003E001205A
S3220049D4628DF80F00FFE79DF80F0006B080BD80B582B001904DF6A460C0F249000013
S3220049D47F90816A019A11448162019A416A11444162019AC16A891AC162019AC16B62
S3220049D49C1144C163C06A70B9FFE74DF6A461C0F24901002081F82100012281F820B8
S3220049D4B92081F82200C863FFE74DF6A460C0F24900C06A70B9FFE74DF6A460C0F2C7
S3220049D4D64900006838B1FFE74DF6A460C0F2490000688047FFE702B080BD80B58669
S3220049D4F3B00590049100208DF80F00059828B3FFE74020C7F60000019000F08CFCBB
S3220049D5100290059800F0E8FB014601988DF80F10029921F000410291029900F08599
S3220049D52DFC01980499ADF80810029900F07EFC0198029941F000410291029900F0DA
S3220049D54A76FC03E001208DF80F00FFE79DF80F0006B080BD80B584B0039003980255
S3220049D56790039830B9FFE74DF68060C0F249000290FFE74DF6A460C0F249000090F6
S3220049D58400F038F90098029900F07AF80099022081F8210000F0F6F98DF807009D28
S3220049D5A1F8070058B9FFE74DF6A461C0F24901002081F82100012081F82000FFE78A
S3220049D5BE04B080BD80B58CB0DDF838C00B908DF82B100992089300208DF81F00017C
S3220049D5DBA800F01FFAD8B9FFE79DF82B008DF8040009980290089805900020049057
S3220049D5F80E9806900B9801A9FEF7A6FE20B9FFE700208DF81F0003E001208DF81F7A
S3220049D61500FFE700E0FFE79DF81F000CB080BD80B58AB00990089100208DF81F00EB
S3220049D6320998F0B1FFE70898D8B1FFE70998006800900098407B8DF80400089880C0
S3220049D64F680290009840698DF80C00089840680490089800680690099801A9FEF7E9
S3220049D66C1DFF8DF81F0003E001208DF81F00FFE79DF81F000AB080BD82B001900096
S3220049D68991019840B3FFE7009828B3FFE70098006801990860009840680199486055
S3220049D6A600988068019988600098C0680199C8600199DDF800C0DCF81000DCF81499
S3220049D6C320DCF81830DCF81CC0C1F81CC08B614A6108610098006A01990864FFE78C
S3220049D6E002B0704780B58EB0DDF840C00D908DF833100B920A93002002908DF82730
S3220049D6FD0003A8019000F08CF9019902989DF833208DF80C200B9A04920A9A0692CC
S3220049D71A0790109808900D98FEF7C1FE20B9FFE700208DF8270003E001208DF82738
S3220049D73700FFE79DF827000EB080BD80B54DF6A460C0F24900406880B1FFE74DF670
S3220049D754A460C0F2490090F82100012807D1FFE74DF6A460C0F2490040688047FF2A
S3220049D771E74DF6A460C0F24900406878B1FFE74DF6A460C0F2490090F8210038B990
S3220049D78EFFE74DF6A460C0F2490040688047FFE780BD80B584B00390029100208D39
S3220049D7ABF807000398D0B1FFE70298B8B1FFE703980068009002980099086202995D
S3220049D7C80320C8600398FFF78EF98DF807009DF8070020B9FFE702990020C860FFC9
S3220049D7E5E703E001208DF80700FFE79DF8070004B080BD82B00190019828B3FFE7D1
S3220049D802019900200090086001994860019988600199C860019981F8200001998134
S3220049D81FF82100019981F8220001994862019988620199C862019981F830000199E6
S3220049D83C4863019988630199C86301990864FFE702B0704780B584B00390029100A7
S3220049D859208DF80700039800F026FA0390029800F0C7F902900398029900F0A2F9DC
S3220049D87650B9FFE7FFE700F0E4FA012803D0FFE7FFF7E9FCF7E703E001208DF80778
S3220049D89300FFE79DF8070004B080BD80B586B0059304920391029001208DF807004A
S3220049D8B04DF6A460C0F24900806B02A9FFF7B2FE8DF807009DF8070060B9FFE74D1A
S3220049D8CDF6A460C0F24900806B4FF48A61FFF787FD8DF80700FFE79DF8070006B0A3
S3220049D8EA80BD80B582B001208DF807004DF6A460C0F24900806B694600230B600611
S3220049D907214FF0FF32FFF7EAFE8DF807009DF8070058B9FFE74DF6A460C0F24900E4
S3220049D924806B0A21FFF754FC8DF80700FFE79DF8070002B080BD80B582B001208D29
S3220049D941F807004DF6A460C0F24900806B694600230B6006214FF0FF32FFF7C3FEC3
S3220049D95E78B9FFE74DF6A460C0F24900806B0A21FFF731FC20B9FFE700208DF80760
S3220049D97B00FFE7FFE79DF8070002B080BD80B582B001208DF807000020009000F035
S3220049D9982CFAFEF728FC8DF807004DF6A460C0F24900806B0090009840B1FFE79D8F
S3220049D9B5F8070020B9FFE700208DF8070003E001208DF80700FFE79DF8070002B0D8
S3220049D9D280BD80B584B00390029100208DF80700009002980090039880B1FFE70005
S3220049D9EF9840B1FFE75020C7F6000000F015FA0099086003E001208DF80700FFE7BA
S3220049DA0C03E001208DF80700FFE79DF8070004B080BD82B0019000208DF80300013F
S3220049DA2998A0B1FFE70199FF20087001994FF0FF30486001990320087201990020F0
S3220049DA46C86001990861019948618DF8030003E001208DF80300FFE79DF803000272
S3220049DA63B0704780B584B00390029100208DF8070002980090039880B1FFE7009841
S3220049DA8040B1FFE7009801685020C7F6000000F0D3F903E001208DF80700FFE70300
S3220049DA9DE001208DF80700FFE79DF8070004B080BD85B004900391029200208DF887
S3220049DABA0700049900914DF6A461C0F24901022281F8202081F82120032281F82230
S3220049DAD720009A4A62039A8A62029ACA62C863886848639DF8070005B0704785B029
S3220049DAF404900391029200208DF80700049900914DF6A461C0F24901022281F8212E
S3220049DB112081F82020042281F82220009A4A62039A8A62029ACA62C863C868486351
S3220049DB2E9DF8070005B0704780B584B003900291019200208DF80300039802990182
S3220049DB4B9AFFF7AFFF50B9FFE7FFE700F077F9012803D0FFE7FFF77CFBF7E703E0EB
S3220049DB6801208DF80300FFE79DF8030004B080BD80B584B003900291019200208D6A
S3220049DB85F8030003980299019AFFF7B0FF50B9FFE7FFE700F056F9012803D0FFE7CD
S3220049DBA2FFF75BFBF7E703E001208DF80300FFE79DF8030004B080BD84B003900229
S3220049DBBF9100208DF80700039900914DF6A461C0F24901022281F8202081F82120B5
S3220049DBDC81F82220009A4A628862029ACA62C8634FF4805048639DF8070004B07081
S3220049DBF94783B001900198B0F5805F04D8FFE74FF48050029010E001986FF31F30F7
S3220049DC160090009838B1FFE701980099401A00F580700190FFE701980290FFE702B0
S3220049DC339803B0704782B08DF807009DF80700013801460091032808D80099DFE8AD
S3220049DC5001F00203040503E002E001E000E0FFE74DF6A461C0F24901012081F821FE
S3220049DC6D0081F8200002B0704780B584B00390002001902420C7F60000009000F01B
S3220049DC8ACEF8014600980291039A029911430291029900F0CCF801993020C7F600E1
S3220049DCA70000F0C6F804B080BD83B001900198B0F5805F03D8FFE7019802900EE0B7
S3220049DCC401986FF31F300090009828B1FFE700990198401A0190FFE701980290FF96
S3220049DCE1E7029803B0704780B582B0019000208DF80300019858B1FFE7FFE74C2072
S3220049DCFEC7F6000000F091F8C00708B1FFE7F6E703E001208DF80300FFE79DF80337
S3220049DD1B0002B080BD85B00490039102920193049800680090039900988843009005
S3220049DD380198029988400399014000980843009000980499086005B070477047086B
S3220049DD554880F308880848016841F47001016000BF00BF00F086F8002000F07EF8E5
S3220049DD72012000F082F8F8E6490088ED00E080B584B003902C20C7F60000019000A8
S3220049DD8FF04BF8014601980291039A029911430291029900F049F804B080BD80B571
S3220049DDAC82B00190019850B1FFE70198006800900320FFF7DFFF00990020C861FF5F
S3220049DDC9E702B080BD81B00090009858B1FFE70099002008600099486000998860ED
S3220049DDE600990120C860FFE701B0704780B582B04DF6E860C0F249000068019001BA
S3220049DE0398242100F00BF801990020C86102B080BD0B4611461A4600F01CB800BF86
S3220049DE200A46002100F017B882B00190019800680090009802B0704782B00190004E
S3220049DE3D9100980199086002B070474DF6A460C0F2490090F82000704700239A4245
S3220049DE5A08BF7047C1540133F9E780B50020FFF779FB80BD81B000200090FFE7FEF4
S3220049DE77E70120704700BFFEE70000000000000000000100000001000000020000D8
S3220049DE94000100000010000000000000000000000000000000000000000000000011
S3220049DEB1000000000000000000000000000000000000000000000000000000000005
S3220049DECE000000000000000000000000000000000000000000000000000010C049CF
S30A0049DEEB0001000000E2
S7050049DD557F
