S011000000486578766965772056312E3130D8
S2240C10004D53545201000000000000000A9FFC3400004000C0C9040001000000000051354B
S2240C102040000000BEFCAEF70000000058C904000000000000000000000000004D454E44B7
S2240C1040525052437FE144000000000009000000010000000000000000004000000000005A
S2240C10604801000000000000000000000000000000A0450075234500000000000000000054
S2240C108000000000000000000000000000000000000000000000000000000000000000003F
S2240C10A000000000000000000000000000000000000000000000000000000000000000001F
S2240C10C00000000000000000000000000000000000000000000000000000000000000000FF
S2240C10E00000000000000000000000000000000000000000000000000000000000000000DF
S2240C11000000000000000000000000000000000000000000000000000000000000000000BE
S2240C112000000000000000000000000000000000000000000000000000000000000000009E
S2240C114000000000000000000000000000000000000000000000000000000000000000007E
S2240C116000000000000000000000000000000000000000000000000000000000000000005E
S2240C118000000000000000000000000000000000000000000000000000000000000000003E
S2240C11A0000000000000000000000000000000000000000000000000A068410000000000D5
S2240C11C0B8D6030000000000000000000000000080B5ADF6580D00201A90FFE71A984CF290
S2240C11E06811C0F240018A6840F6B731891A884215DAFFE74CF26810C0F2400081681A9ADB
S2240C1200114400EB4100008F4EF2B011C0F2400121F81200FFE71A9801301A90DEE74CF218
S2240C12206810C0F24000816840F6B730401A189000201A90FFE71A984CF26811C0F240011F
S2240C12408968884215DAFFE71A9A4CF26810C0F2400000EB4200008F18990A444EF2B011D5
S2240C1260C0F2400121F81200FFE71A9801301A90E1E74CF26810C0F240008268189911446C
S2240C1280189149F64041C0F246010A78DDF860C04EF2B013C0F2400323F81C2009788268AA
S2240C12A000EB42021187816801318160806840F6B731884209DBFFE74CF26811C0F2400116
S2240C12C08868A0F6B7308860FFE700201A90FFE71A984CF26811C0F24001CA6840F2E7313A
S2240C12E0891A884215DAFFE74CF26810C0F24000C1681A9A114400EB410041F2A671405AB1
S2240C13000DF16E0121F81200FFE71A9801301A90DEE74CF26810C0F24000C16840F2E730D2
S2240C1320401A189000201A90FFE71A984CF26811C0F24001C968884215DAFFE71A9A4CF2CC
S2240C13406810C0F2400000EB420041F2A671405A18990A440DF16E0121F81200FFE71A98D2
S2240C136001301A90E1E74CF26810C0F24000C26818991144189149F64041C0F246010A78FD
S2240C1380DDF860C00DF16E0323F81C200978C26800EB420241F2A673D152C1680131C160BC
S2240C13A0C06840F2E731884209DBFFE74CF26811C0F24001C868A0F2E730C860FFE746F649
S2240C13C05700C0F24100017800201390E1B9FFE746F66B00C0F2410001780020139099B9CE
S2240C13E0FFE746F65800C0F2410001780020139051B9FFE746F66C00C0F241000078B0FA86
S2240C140080F040091390FFE7139800F001004EF2B011C0F2400141F27572885446F6610056
S2240C1420C0F2410001780239B1FA81F149098DF867100178B1FA81F149098DF8661000782E
S2240C14400138B0FA80F040098DF865000020CDF85008CDF84808CDF840081690FFE716985C
S2240C1460312827DCFFE716994CF26810C0F2400001444FF4FC528A5CDDF850181144CDF8AF
S2240C148050181699014441F6B2728A5CDDF848181144CDF848181699084441F6E471415CCB
S2240C14A0DDF840080844CDF84008FFE7169801301690D4E7DDF850088DF84F08DDF8480851
S2240C14C08DF84708DDF840088DF83F084CF26810C0F2400042F21E01405C80B9FFE74CF24A
S2240C14E06811C0F2400142F21E020120885442F21F020220885400208DF83E0847E04CF27B
S2240C15006810C0F2400042F21F01405C01281FD1FFE701208DF83E089DF84F080A2816DC65
S2240C1520FFE79DF847080A2811DCFFE79DF83F080A280CDCFFE74CF26811C0F2400142F211
S2240C15401F020220885400208DF83E08FFE71DE000208DF83E089DF84F0813280ADCFFE7AF
S2240C15609DF84708132805DCFFE79DF83F0814280BDBFFE74CF26811C0F2400142F21F0291
S2240C1580012088548DF83E08FFE7FFE7FFE79DF83E08002818BF01204EF2B011C0F24001D1
S2240C15A041F2767288544CF26810C0F2400042F23A01405C78B9FFE74CF26811C0F24001AF
S2240C15C042F23A020120885442F23B028854189000201A903DE04CF26810C0F2400042F2D5
S2240C15E03B01405C01281AD1FFE70120189000201A9046F66900C0F24100007802280DD15D
S2240C1600FFE74CF26811C0F2400142F23B02022088540020189001201A90FFE718E0002029
S2240C1620189001201A9046F66900C0F24100007801280CD1FFE74CF26811C0F2400142F24C
S2240C16403B0201208854189000201A90FFE7FFE7FFE71898002818BF01208DF85F004CF229
S2240C16606810C0F2400042F23C01405C78B9FFE74CF26811C0F2400142F23C0201208854B2
S2240C168042F23D0288540021169118903DE04CF26810C0F2400042F23D01405C01281AD193
S2240C16A0FFE7002016900120189046F66800C0F24100007801280DD1FFE74CF26811C0F23F
S2240C16C0400142F23D02022088540120169000201890FFE718E0012016900020189046F60F
S2240C16E06800C0F24100007802280CD1FFE74CF26811C0F2400142F23D02012088540021DE
S2240C170016911890FFE7FFE7FFE71698002818BF01208DF8570046F65600C0F24100007810
S2240C1720B0FA80F040094EF2B011C0F2400141F27772885446F65C00C0F241000178012024
S2240C1740129059B9FFE746F63900C0F2410000780138B0FA80F040091290FFE7129800F040
S2240C176001008DF856000020CDF850081690FFE71698B0F57A7F0FDAFFE716990DF16E007D
S2240C178030F81110DDF850080844CDF85008FFE7169801301690EBE7DDF8500846F28C71BA
S2240C17A0C0F2410148800020CDF850081690FFE7169840F6B731884211DCFFE716994EF23B
S2240C17C0B010C0F2400030F81110DDF850080844CDF85008FFE7169801301690E8E7DDF858
S2240C17E0500846F28C71C0F24101088046F67B00C0F2410000780138B0FA80F040098DF88C
S2240C1800550046F67C00C0F24100017801200129119015D0FFE746F67C00C0F24100017863
S2240C18200120022911900BD0FFE746F67E00C0F2410000780138B0FA80F040091190FFE7A1
S2240C1840119800F001008DF8540046F65700C0F24100007858B9FFE74CF26810C0F2400067
S2240C186042F21601415C0120109061B9FFE74CF26810C0F2400042F21D01405C002818BF19
S2240C188001201090FFE7109800F001024CF26810C0F2400042F21D014254415C00200F9009
S2240C18A0E9B1FFE746F2DC70C0F2410090ED000A0020B0EE001AB4EE410AF1EE10FA0E904D
S2240C18C00AD8FFE746F67F00C0F241000078B0FA80F040090E90FFE70E980F90FFE70F9850
S2240C18E000F001004EF2B011C0F2400141F2787288544BF24E00C0F2460000780138B0FA1B
S2240C190080F0400941F2797288544BF24F00C0F2460000780138B0FA80F0400941F27A724C
S2240C1920885446F66400C0F2410000781338B0FA80F040098DF8530046F65600C0F24100A4
S2240C19400078B0FA80F0400941F27B7288544BF25700C0F2460000780138B0FA80F04009FF
S2240C196041F27C7288544CF26810C0F2400001690131016142F22601405C0138B0FA80F069
S2240C198040098DF857089DF8570848B1FFE74CF26810C0F2400042F23E01405C38B9FFE7A8
S2240C19A04CF26811C0F2400108694861FFE79DF857084CF26811C0F2400142F23E0288547E
S2240C19C04EF2B010C0F2400041F27771405CB0FA80F040098DF86D009DF86D0048B1FFE717
S2240C19E04CF26810C0F2400042F23F01405C38B9FFE74CF26811C0F2400108698861FFE75D
S2240C1A009DF86D004CF26811C0F2400142F23F0288549DF86D0048B1FFE74CF26810C0F26F
S2240C1A2040004FF40151405C38B9FFE74CF26811C0F240010869C861FFE79DF86D004CF2E3
S2240C1A406811C0F240014FF4015288549DF86600B0FA80F040098DF857089DF8570848B960
S2240C1A60FFE74CF26810C0F2400042F24101405C38B9FFE74CF26811C0F240010869086259
S2240C1A80FFE79DF866104CF26810C0F2400042F24102815441F67471405A4FF6FF7188421B
S2240C1AA00AD0FFE74CF26811C0F2400141F67472885A01308852FFE74CF26810C0F2400013
S2240C1AC042F22001405C002857D1FFE74CF26812C0F240020D920021116142F22003012078
S2240C1AE0D054136913621369D3611369936142F23E03D1541369536142F2210C052302F853
S2240C1B000C3041F67473D15246F69202C0F2410211704BF22C02C0F24602117046F6950139
S2240C1B20C0F24101087031F0B7FE0D9842F22601405C0138B0FA80F040098DF867009DF899
S2240C1B40670048B1FFE74CF26810C0F2400042F23E01405C38B9FFE74CF26811C0F24001F6
S2240C1B6008694861FFE79DF867004CF26811C0F2400142F23E028854DFE04CF26810C0F237
S2240C1B80400042F22101405C013801460C91032800F2C1800C99DFE801F00213243569460D
S2240C1BA00DF15300486015A808600DF167000DF166010DF15F020DF1550308F069FFBBE07C
S2240C1BC069460DF15300486015A808600DF167000DF166010DF15F020DF155030BF058FB5A
S2240C1BE0AAE069460DF15300486015A808600DF167000DF166010DF15F020DF155030AF004
S2240C1C0093FB99E04BF22C01C0F246010120087046F69501C0F24101002008709DF8670056
S2240C1C2030BBFFE74EF2B010C0F2400041F27571405C48B9FFE74CF26810C0F2400042F258
S2240C1C401B01405CA0B9FFE74EF2B010C0F2400041F27771405C00285CD0FFE74CF26810E3
S2240C1C60C0F2400042F21C01405C002852D1FFE74CF26811C0F240010B91086908620869B1
S2240C1C80C8610869886142F23E02002088540A694A6142F221030522CA5441F6747288528E
S2240C1CA046F69201C0F2410108704BF22C01C0F24601087046F69501C0F24101012008709E
S2240C1CC031F0EAFD0B9842F22601405C0138B0FA80F040098DF867009DF8670048B1FFE7EE
S2240C1CE04CF26810C0F2400042F23E01405C38B9FFE74CF26811C0F2400108694861FFE79B
S2240C1D009DF867004CF26811C0F2400142F23E028854FFE710E0694615A848600DF156007E
S2240C1D2008600DF166000DF165010DF15F020DF157030AF0DEFEFFE7FFE74CF26810C0F2A1
S2240C1D40400041F67A71405A40F2FE7188420AD8FFE74CF26811C0F2400141F67A72885A94
S2240C1D6001308852FFE74CF26810C0F2400042F23401405C80B9FFE74CF26811C0F24001EB
S2240C1D8042F234020120885442F235020220885400208DF84F0869E04CF26810C0F2400075
S2240C1DA042F23501405C01460A91012804D0FFE70A98022816D033E000208DF84F084CF248
S2240C1DC06810C0F2400042F21701405C48B9FFE74CF26811C0F2400142F2350202208854A6
S2240C1DE0FFE742E000208DF84F084CF26810C0F2400042F21701405C022810D1FFE74CF20F
S2240C1E006811C0F2400142F235020320885441F67A720020885201208DF84F08FFE724E0D7
S2240C1E2001208DF84F084CF26810C0F2400042F21701405C01280BD0FFE74CF26810C0F2B2
S2240C1E40400041F67A71405AB0F5966F0CD3FFE74CF26811C0F2400142F2350201208854F4
S2240C1E6000208DF84F08FFE7FFE7FFE746F67D00C0F2410000780138B0FA80F040098DF85E
S2240C1E80660046F65A00C0F241000078B0FA80F040098DF86D004CF26810C0F2400041F696
S2240C1EA07871405A40F2FE3188420AD8FFE74CF26811C0F2400141F67872885A01308852E3
S2240C1EC0FFE74CF26810C0F2400042F23201405CA8B9FFE74CF26811C0F2400142F2320207
S2240C1EE00120885442F23302022088544EF2B011C0F2400141F2737200208854DCE04CF26B
S2240C1F006810C0F2400042F23301405C01460991012804D0FFE70998022831D084E09DF8B9
S2240C1F206D00D8B1FFE74CF26810C0F2400042F21801405C012811D0FFE74CF26810C0F2CB
S2240C1F40400042F21801405C40B1FFE79DF8660020B1FFE79DF8570888B1FFE74CF26811F4
S2240C1F60C0F2400142F23302022088544EF2B011C0F2400141F2737200208854FFE79AE08E
S2240C1F809DF84F0838BBFFE79DF86D0018B3FFE74CF26810C0F2400042F21801405C0228FD
S2240C1FA019D1FFE79DF86600A8B1FFE74CF26811C0F2400142F233020320885441F67872D3
S2240C1FC0002088524EF2B011C0F2400141F273720120885427E09DF84F0818B3FFE79DF8B4
S2240C1FE06D00F8B1FFE74CF26810C0F2400042F21801405C022815D1FFE79DF8660088B119
S2240C2000FFE74CF26811C0F2400142F23302012088544EF2B011C0F2400141F2737200208D
S2240C20208854FFE7FFE746E04CF26810C0F2400042F21801405C012811D1FFE74CF2681188
S2240C2040C0F2400142F23302022088544EF2B011C0F2400141F27372002088542AE09DF86E
S2240C20604F0888B1FFE74CF26811C0F2400142F23302012088544EF2B011C0F2400141F2A2
S2240C208073720020885414E04CF26810C0F2400041F67871405AB0F52F7F09D3FFE74EF2A3
S2240C20A0B011C0F2400141F2737200208854FFE7FFE7FFE7FFE7FFE79DF84F180120089014
S2240C20C061B9FFE74EF2B010C0F2400041F27371405C002818BF01200890FFE7089800F01C
S2240C20E0010046F68401C0F2410108704CF26810C0F2400041F67E71405A40F2FE718842CE
S2240C21000AD8FFE74CF26811C0F2400141F67E72885A01308852FFE74CF26810C0F240009A
S2240C212042F23801405C80B9FFE74CF26811C0F2400142F238020120885442F239020220C0
S2240C2140885400208DF84F0869E04CF26810C0F2400042F23901405C01460791012804D0BF
S2240C2160FFE70798022816D033E000208DF84F084CF26810C0F2400042F21901405C48B917
S2240C2180FFE74CF26811C0F2400142F2390202208854FFE742E000208DF84F084CF2681077
S2240C21A0C0F2400042F21901405C012810D1FFE74CF26811C0F2400142F23902032088542A
S2240C21C041F67E720020885201208DF84F08FFE724E001208DF84F084CF26810C0F2400041
S2240C21E042F21901405C02280BD0FFE74CF26810C0F2400041F67E71405AB0F5966F0CD308
S2240C2200FFE74CF26811C0F2400142F239020120885400208DF84F08FFE7FFE7FFE74CF2C5
S2240C22206810C0F2400041F67C71405A40F2FE3188420AD8FFE74CF26811C0F2400141F691
S2240C22407C72885A01308852FFE74CF26810C0F2400042F23601405CA8B9FFE74CF26811FF
S2240C2260C0F2400142F236020120885442F23702022088544EF2B011C0F2400141F2747279
S2240C228000208854DCE04CF26810C0F2400042F23701405C01460691012804D0FFE7069866
S2240C22A0022831D084E09DF86D00D8B1FFE74CF26810C0F2400042F21A01405C022811D06F
S2240C22C0FFE74CF26810C0F2400042F21A01405C40B1FFE79DF8660020B1FFE79DF85708F7
S2240C22E088B1FFE74CF26811C0F2400142F23702022088544EF2B011C0F2400141F274728C
S2240C230000208854FFE79AE09DF84F0838BBFFE79DF86D0018B3FFE74CF26810C0F2400030
S2240C232042F21A01405C012819D1FFE79DF86600A8B1FFE74CF26811C0F2400142F2370257
S2240C23400320885441F67C72002088524EF2B011C0F2400141F274720120885427E09DF8A8
S2240C23604F0818B3FFE79DF86D00F8B1FFE74CF26810C0F2400042F21A01405C012815D111
S2240C2380FFE79DF8660088B1FFE74CF26811C0F2400142F23702012088544EF2B011C0F265
S2240C23A0400141F2747200208854FFE7FFE746E04CF26810C0F2400042F21A01405C022807
S2240C23C011D1FFE74CF26811C0F2400142F23702022088544EF2B011C0F2400141F2747202
S2240C23E0002088542AE09DF84F0888B1FFE74CF26811C0F2400142F23702012088544EF267
S2240C2400B011C0F2400141F274720020885414E04CF26810C0F2400041F67C71405AB0F5E3
S2240C24202F7F09D3FFE74EF2B011C0F2400141F2747200208854FFE7FFE7FFE7FFE7FFE794
S2240C24409DF84F180120059061B9FFE74EF2B010C0F2400041F27471405C002818BF0120F3
S2240C24600590FFE7059800F0010046F68501C0F2410108704CF26810C0F2400042F2310106
S2240C2480405C50B9FFE74CF26811C0F2400142F23102885C01308854FFE74CF26810C0F250
S2240C24A0400042F22F01405CC0B9FFE74CF26811C0F2400142F22F020120885442F23002FA
S2240C24C00420885446F63801C0F241010020087046F63701C0F241010870CFE04CF26810A5
S2240C24E0C0F2400042F23001405C01460491012808D0FFE7049802282FD0FFE704980328A3
S2240C250055D07EE046F63801C0F241010020087046F63701C0F24101087046F69100C0F2C7
S2240C252041000078C0B9FFE74CF26811C0F2400142F230020220885442F231020020885401
S2240C254046F63801C0F24101087046F63701C0F2410101200870FFE78FE046F63801C0F20C
S2240C256041010020087046F63701C0F24101012008704CF26810C0F2400042F23101405CC5
S2240C2580A0B1FFE74CF26811C0F2400142F230020420885446F63801C0F2410100200870E2
S2240C25A046F63701C0F241010870FFE765E046F63801C0F241010120087046F63701C0F2D7
S2240C25C04101002008704CF26810C0F2400042F23101405CA0B1FFE74CF26811C0F2400185
S2240C25E042F230020120885446F63801C0F241010020087046F63701C0F241010870FFE7A0
S2240C26003BE046F63801C0F241010020087046F63701C0F24101087046F69100C0F24100ED
S2240C26200078012810D0FFE746F69100C0F241000078022808D0FFE746F69100C0F2410042
S2240C26400078032818D1FFE74CF26811C0F2400142F230020320885442F231020020885485
S2240C266046F63802C0F241020121117046F63701C0F241010870FFE7FFE7FFE74CF26810F3
S2240C2680C0F2400041F67671405A40F2FE7188420AD8FFE74CF26811C0F2400141F6767283
S2240C26A0885A01308852FFE74CF26810C0F2400042F22D01405C80B9FFE74CF26811C0F208
S2240C26C0400142F22D020120885442F22E020220885400208DF84F086BE04CF26810C0F237
S2240C26E0400042F22E01405C01460391012804D0FFE70398022816D036E000208DF84F080F
S2240C27004EF2B010C0F2400041F27A71405C48B9FFE74CF26811C0F2400142F22E020220E5
S2240C27208854FFE744E000208DF84F084EF2B010C0F2400041F27A71405CA0B1FFE79DF82E
S2240C27405F0080B1FFE74CF26811C0F2400142F22E020320885441F67672002088520120AB
S2240C27608DF84F08FFE723E001208DF84F084EF2B010C0F2400041F27A71405C58B1FFE7EB
S2240C27804CF26810C0F2400041F67671405AB0F5966F0CD3FFE74CF26811C0F2400142F27B
S2240C27A02E020120885400208DF84F08FFE7FFE7FFE74CF26810C0F2400042F22B01405C89
S2240C27C080B9FFE74CF26811C0F2400142F22B020120885442F22C020220885400208DF8BC
S2240C27E04708A3E04CF26810C0F2400042F22C01405C01460291012804D0FFE702980228D0
S2240C28001DD068E000208DF847089DF86D0060B1FFE79DF85F0040B1FFE79DF8660020B1EE
S2240C2820FFE79DF8570848B1FFE74CF26811C0F2400142F22C0202208854FFE775E0002069
S2240C28408DF847089DF84F0808BBFFE74EF2B010C0F2400041F27A71405CC0B1FFE79DF866
S2240C28605F00A0B1FFE79DF86D0080B1FFE79DF8660060B1FFE74CF26811C0F2400142F2C8
S2240C28802C020320885401208DF8470822E09DF84F08F0B1FFE74EF2B010C0F2400041F26B
S2240C28A07A71405CA8B1FFE79DF85F0088B1FFE79DF86D0068B1FFE79DF8660048B1FFE753
S2240C28C04CF26811C0F2400142F22C0201208854FFE7FFE729E001208DF847084EF2B01014
S2240C28E0C0F2400041F27A71405C60B9FFE74CF26811C0F2400142F22C02022088540020F2
S2240C29008DF8470810E09DF84F0860B1FFE74CF26811C0F2400142F22C02012088540020D6
S2240C29208DF84708FFE7FFE7FFE7FFE79DF84F0820B9FFE79DF8470838B1FFE746F68201FD
S2240C2940C0F241010220087006E046F68201C0F2410101200870FFE746F28C70C0F2410099
S2240C29604088282807DBFFE746F69401C0F241010220087006E046F69401C0F2410101203B
S2240C29800870FFE71898002818BF012046F68601C0F2410108701A98002818BF012046F6BB
S2240C29A08801C0F2410108704EF2B011C0F2400141F276700A5C46F68903C0F241031A7056
S2240C29C0085C46F69302C0F2410210704BF25A00C0F24600007841F2707288544BF25B00AC
S2240C29E0C0F24600007841F27172885446F60A00C0F24100B0F900000138B0FA80F04009E6
S2240C2A0041F27272885400201A90FFE71A9830281FDCFFE71A994CF26810C0F24000421862
S2240C2A2002F5FC5149784FF4FC53D1541A99421841F6B273D1184978D1541A99014441F662
S2240C2A40E472881840788854FFE71A9801301A90DCE74EF2B010C0F2400041F27271425CFF
S2240C2A604CF26811C0F2400141F6B173CA5441F27172825C41F6E373CA5441F27072825C90
S2240C2A8042F21503CA5441F27572825C42F21B03CA5441F27772805C42F21C02885446F6F1
S2240C2AA05700C0F24100007842F21602885446F66900C0F24100027842F21703CA54007825
S2240C2AC042F21802885446F66800C0F24100027842F21903CA54007842F21A0288540DF695
S2240C2AE0580D80BD2DE9F04FE9B066900020DFF83C5C9046729C99460991089008782844CF
S2240C2B004278D00623D5481CD10605D5099010F8011B29444A78F7E766A8A04706460130CB
S2240C2B2000F0ED8566AF3BF0DAFDA8194078C00603D53846A0470646F5E7739A66A83146D5
S2240C2B409047089801380890701C00F0D885CDF80C800AA84FF000084FF0000A01300190EE
S2240C2B604AA800F10D010C300091049066ADCDF808904AA870213AF00DFD4FF0FF304B9082
S2240C2B8009A9284608AAC847012809D0002800F0BE85DFF8986B013040F08F8000F0B2BD3D
S2240C2BA00999481C09904A782A2A05D1881C4A99099041F001014A91DFF8706B441C67A929
S2240C2BC014F8010CA0F13002092A06D8099414F8010C013401F8010BF2E70022651E0A700F
S2240C2BE09DF89C1121B167A835F036FC4B9028784C280DD068280FD06A2815D06C2817D01D
S2240C2C0074281FD07A2828D14A9840F4805022E04A9840F080001EE009944A98217868295C
S2240C2C2014D140F400700AE04A9840F4006012E009944A9821786C290BD140F480704A9021
S2240C2C40651C0AE04A9840F4005004E040F0200001E040F0400025464A90681C099029780A
S2240C2C605B298DF894112AD101785E2906D14A99A81C099041F002014A91A9785D2906D1F6
S2240C2C80421C0099099200788DF8340101E004990246501C10F8012C42B15D2A06D009900F
S2240C2CA010F8012C013001F8012BF3E700220A7010F8011C5D2908BF09909DF89411A1F12B
S2240C2CC05B00132810D8012101FA00F0D24908420AD066AD72992846884707463BF007FD42
S2240C2CE0089E781C12D014E0729C66AD2846A04707463BF0F4FCF0194078C006F6D43BF059
S2240C2D00F6FC0898461E781C089602D1002E00F0F6849DF894B1ABF15801202941D80120BD
S2240C2D20DFE811F03F015B035B0344015B035B035B035B035B034B005B03E80021004B00A6
S2240C2D404B004B005B0321005B035B035B035B03FF03210021005B035B03E8005B0321006E
S2240C2D605B035B0321002846729D4B9CA84707460898CDF81CA001300890BCB32D2F02D03E
S2240C2D802B2F40F0D9808DF8287066A8A847074608980130013C089000F0FA80DDF804905F
S2240C2DA0CCE0ABF14100062800F2B680012101FA00F010F0710F00F0AF80DDF8C8812846EB
S2240C2DC04B9DC04783460130CDE9066A0AD008980130BBF12B0F08900FD19DB94FF02B0BFF
S2240C2DE0002501E04FF0FF3B0AAF16E04FF0010B4FF000080DF12809D0E0002DF4D0BBF186
S2240C2E002D0FF1D18DF828B066A8C0478346013001D03BF064FC019F013DABF16100DFF829
S2240C2E2010391A28584638BF2038002102291ED053F82160013132789042F7D10024A54282
S2240C2E4049D0305D002845D0ABF161011A29594638BF203981423DD107F804B066A8C047B5
S2240C2E608346013001D03BF03AFC0134E7E74FF001084FF00009002D4AD0BBF1300F47D138
S2240C2E803C463020DDF8C88104F8010B66A8C0478346013001D03BF022FC6E1E00F01B81E8
S2240C2EA0ABF161001A28584638BF2038582840F0308187F801B066A8C0478346013001D064
S2240C2EC03BF00DFC0120BC1CAE1E4FF000094FF0000823E12546A5F10800E91EDDF818A0B8
S2240C2EE03C44B0FA80F0B1FA81F14009490941EA00089FE14A99374601F00100490600F12A
S2240C2F008480002840F0AC81039810C80390A8E100203C462E4601E1BBF1250F40F05D82A1
S2240C2F20729928468847252840F0098208984FF00108013008905BE20DF12809DFF8F42721
S2240C2F400020115C594503D0062803D00130F8E7104400E00020801A012813D1302F5DD1C9
S2240C2F60374666AE3046A84735463E4607463BF0BEFB27F02000583818BF01204FEAC00A58
S2240C2F8030274EE0DFF8B01766AD11F800A048E0DDF804904FF0010B4FF0000800240020DA
S2240C2FA06BE04FF0780B8DF894B1DCE6DDE94A05D346B2460DF1280900F00206002D00F0FD
S2240C2FC09E80729966A888478046471C00F08780049B5FFA88F000211A4612F8014B8442AD
S2240C2FE008BF19461346002CF7D1002E3246B1FA81F118BF012249098A4270D1089909F88F
S2240C3000010B013D01310891D8E7002840F06181039810C803905DE1010108004FF00A0AF0
S2240C302066AD4FF00108BBF1690F08D0BBF1780F05D0ABF17000B0FA80F04FEA5018BBF1AD
S2240C30406F0F04D1302F0AD04FF0010BA7E700204FF0010BB8F1000F0FD0302F0DD130206B
S2240C3060729909F8010B2846884707460898013C4FF0000B013008900120B8F1000F069638
S2240C308000F06881729D002C00F06581002800F0628127F02000582840F05D8166AE3046EB
S2240C30A0A8478046739A304641469047DFF87C0640444078800740F14E81304609F8017B5A
S2240C30C0A847074608980130013C089000F021834FF0100A3FE14FF0010900261BE0739A79
S2240C30E066A8414690470898824508D1002F18BF4FF00008DDF8089066ADDA466DE10020B8
S2240C31004FF00108DA4689F80000DDF8089066AD6EE14FF0010900204FF001080590002779
S2240C312000254FF0000A002E6FD0BBF12B0F41D0BBF12D0F3ED0BBF12E0F36D0BBF1450FC7
S2240C314002D0BBF1650F0BD1B8F1000F44D0B9F1000F5AD0002D58D101254FF0010948E0F4
S2240C3160ABF13A0010F10B0F0DD8059800284CD0DFF8B80558444078800704D44BF02000E5
S2240C31807028E4D041E0BBF12B0F13D0BBF12D0F10D0BBF1700FDAD0BBF1500FD7D0BBF1ED
S2240C31A0650FD1D0BBF12E0F16D157EA05002CD101271DE0B8F1000F05D014F8010C40F0DB
S2240C31C02000652815D00598F8B114F8010C40F0200070280DD018E045B1ABF13A0001253E
S2240C31E010F10A0F11D34FF0010A02E04FF001090025729904F801BB66A88847834601308C
S2240C320001D03BF06CFA013E8DE7BAF1000FB5FA85F018BF4FF0010A4009B9F1000F40EA5D
S2240C32200A0018BF4FF00109DDF818A009EA0008DDF8089066AD739A5946284690471BF14E
S2240C3240010002D008990139089100212170002818BF4FF0000B0898824508BFD846BAE035
S2240C326000244B98729E0546002848BF0125BBF1630F18BF054666A8B0473AF098FF05D0AB
S2240C3280DFF8A80408444078C0060AD4481C022807D335B114B104F8011B00E00024013D85
S2240C32A0E9E766AD739A28469047089801388742089000F030824FF00108BBF1730F40F046
S2240C32C09780002C00F0948000204FF0010820708EE000244B98729E0546002848BF012579
S2240C32E0BBF1630F18BF054666A8B0473AF05FFF05D0DFF8380408444078C00609D4481CFD
S2240C3300022806D32DB10CB102C400E00024013DEAE766AD739A284690470898013887421E
S2240C3320089000F0F8814FF00108BBF1730F5FD1002C5DD000204FF00108206058E0804696
S2240C3340739A28464146904718F1010018BF4FF0000842E0729D01260CB3BAF1080F03D1AE
S2240C3360302F01DB382F0FDBBAF10A0F03D1302F01DB3A2F08DBBAF1100F10D1DFF8AC0360
S2240C33803844407880070AD509F8017B66A8A84707460898013C002601300890DCE766AD19
S2240C33A0739A394628469047089801380890002089F800000BEA0600012813D108980699D2
S2240C33C04FF00008484060EA0700002808BF4FF0FF38DDF80890DDF81CA008F10100012836
S2240C33E006D89AE1DDF80890DDF81CA04FF001089DF89411A1F15B021D2A33D84046DFE855
S2240C340012F020001E001E001E001E001E003D001E0077013D003D003D003D001E003D00C1
S2240C34201E001E001E001E0090003D003D001E001E0077011E003D001E001E003D00FFF77B
S2240C344098BB4A98C1077FF494AB400600F1E280039B18680AA911F8012B00F8012B002ABF
S2240C3460F9D1EBE0A1F1410006283FF682AB012202FA00F010F0710F3FF47BAB9DF828009E
S2240C3480002800F035814A98C20740F03181A1F16103172B00F26D800022DFE813F0750048
S2240C34A029012901950075007500750029019600290129012901290129011800B50029012A
S2240C34C0290129012901180029012901180043F6607210400822782908BF1022752908BF55
S2240C34E00A22B0F5005F00F0D380039C402800F0B080B0F5807F00F0A780B0F5007F00F052
S2240C3500CC80B0F5006F00F09F80B0F5805F00F0C980202840F09D800AA8002123F086FE6F
S2240C35206DE04A998046CA077FF423AB43F660721140B1F5005F00F09B80039A402900F010
S2240C35409880B1F5807F6DD0B1F5007F00F09980B1F5006F66D0B1F5805F00F08A8020291F
S2240C356040F0878002CA80460392089A0A80FFF700BB4139062900F2BB80012202FA01F118
S2240C358011F0710F00F0B48000F0C00080280AD0039C40280AA84FF000010ED10EF02CF849
S2240C35A001CC039406E00AA800210EF025F8039901C9039180ED000B9AE00EF01DF851EC86
S2240C35C0100B30F0B5FE8FE00A2243F660710840B0F5005F6BD040286ED0039CB0F5807FD7
S2240C35E03CD0B0F5007F6FD0B0F5006F36D0B0F5805F71D0202874D10AA80DF0FAFF54F8EB
S2240C3600041B0394088073E00AA80021102223F00DFE54E0039B18680AA90A7862B104C087
S2240C36200131FAE752F8041B80460392089AD317C1E90023FFF79DBA0021016004330AF148
S2240C3640010A0393FFF795BA0AA8002120F0C4FC08E00AA8002123F0E9FD45E00AA8002124
S2240C36601BF0EEFA54F8042B0394C2E900013FE0039A52F8041B80460392089A0A60FFF706
S2240C368078BA02CA80460392089A0A70FFF771BA0AA8002120F0A0FC11E00AA8002123F02D
S2240C36A0C5FD14E00AA8002120F096FC1CE00AA800211BF0C5FA02E00AA80DF09AFF039A6E
S2240C36C052F8041B039212E00AA80DF092FF54F8041B039408700BE00AA800211BF0B0FABC
S2240C36E002E00AA80DF085FF54F8041B039408604A98012121EA00008244FFF73ABA4FF03C
S2240C3700FF380EE0BAF1000F08BF4FF0FF3AD04607E0DDF81CA04FF0FF38BAF1000F18BFE5
S2240C3720D046404669B0BDE8F08F00BF201B4600083E4600D84046000A4146002DE9F04F8F
S2240C374091B08A46C1EBC10046F26451C0F2410101EB800717F8024F5046154633F06DFCA9
S2240C376048B10646012801D1122028705EB1002E40F0798410E0504619212A462BF080FAFF
S2240C37800646002EF3D1504619212A462BF08EFE0646002E40F0678446F20C39C4EBC4006E
S2240C37A0C0F2410909EBC00040780138092800F29381DFE810F00A0047008E00C100910127
S2240C37C09301910191019101E20138780026C0EBC00009EBC0073869ADF83C6003281EBFC5
S2240C37E0132129700126032840F03D844AF64871C0F24601F879096846F20C520001C0F28B
S2240C380041020968105C496800EB400001EB80010D91896842F62E12F868C0F2410201EBE6
S2240C3820020990F8028009F102000C9136F0A6FD0646002800F0768201244FF0000B022013
S2240C384000F00DBC38780026C0EBC00009EBC0042069ADF83A6003281EBF132129700126E1
S2240C3860032840F000844AF64871C0F24601E079096846F20C520001C0F241020968105C33
S2240C3880496800EB400001EB8000D0F808B042F62E12C0F2410202EB0B00592102F80B105B
S2240C38A00221861C4170304636F068FD002800F05382002003264FF00108B8F1010F00F059
S2240C38C0CF83012840F00E83012084F836000A26C9E338780026C0EBC00009EBC00738694F
S2240C38E0ADF83A6002281EBF132129700126022840F0AB814AF64871C0F24601F879096823
S2240C390046F20C520001C0F241020968105C496800EB400001EB8004A0680DF13A010D9003
S2240C3920012035F09EFA012802BF312028700126002E00F08D81CAE13878C0EBC00009EBB8
S2240C3940C002106906280FBF0026132129700126062840F08883D0793F7801014AF64870A2
S2240C3960C0F2460000680D9246F20C52C0F241020368C7EBC707515C09EBC7075B68FE7918
S2240C398001EB410103EB81043101515CA2680994089201EB4102F96803EB82039C6891F8C5
S2240C39A0059042F62E1CD3F804B08B78CE780F79C0F2410C6444B9F1FF0FA370E67027712F
S2240C39C040F0948100680127406800EB8200CA78D0E9018988780979130243EA00435E18EA
S2240C39E009EB0C04A070E27021710DF13A02304601212FF08BFC002840F087819DF83A0017
S2240C3A000121607130462CF051F9012800F05F8342F62E1C07460028C0F2410C40F07A83A8
S2240C3A200C9606243E460797CDE90A98E0434044A144ADF83C0009EB0C00431C0FA800901C
S2240C3A400C98FAB201214FF0010BE0462BF0D8FC78B1052832D0411EC9B2012913D83120EB
S2240C3A60287031F05BF842F62E1C0126C0F2410C06E0BDF83C00C4462044441C08F8097063
S2240C3A80DDE90A9812E00328079808BF01300790C0B2DDE90A98FF2804D13120287031F082
S2240C3AA03DF8012642F62E1CC0F2410C0137F8B2FF284FF0000B01D03006B7D031F02EF8F0
S2240C3AC042F62E1C0746C0F2410C002818BF0127002F40F0258125E31220C2E23878C0EBA2
S2240C3AE0C00009EBC0021069062840F0FD804AF64871C0F24601D079096846F20C530001A7
S2240C3B00C0F241030968185C496800EB400001EB800151F8040F0A920D90D0680991C278CF
S2240C3B204C688178037990F80580100242F62E1640EA0140C0F2410600EB030B089434443F
S2240C3B40A170E2700DF13A025846012123712FF0DDFB0028079400F03581012100274FF07B
S2240C3B6005090026300640F07E82002940F0D880002F00F0B1820A99D8E238780026C0EBB9
S2240C3B80C00009EBC0042069ADF83A6002281EBF132129700126022840F065824AF648719F
S2240C3BA0C0F24601E079096846F20C5B0001C0F2410B09681BF80000496800EB400001EB47
S2240C3BC08000806842F62E12C0F24102592102EB000811540A2088F8010008F1020036F05F
S2240C3BE0CDFB064600284FF0030340F0A08198F802004246002800F09B8138784AF64871EB
S2240C3C00C0EBC00009EBC009C0F2460199F807000968000109681BF80000496800EB400008
S2240C3C2001EB80070D92D7F808B000260020012101220123CDE9006602962DF0EFF900284A
S2240C3C4000F080810D9A032372E1002E7FF473AE42F62E1B0D9AC0F2410B0BEB020003213E
S2240C3C6041705921BDF83A000BF80210810062680231914282BF1421297001264FF0020438
S2240C3C802EBB20B30C9702244FF000080DF13C090DF143074846394636F03CF870B90F9984
S2240C3CA00D9B0A0C23440BEB03050BF803200A0A6A709DF843200434A970EA70BDF83A101A
S2240C3CC008F10108884501D20128E3D10C9F002E40F0C98142F62E100D99C0F241000844A6
S2240C3CE03C62C7E9050429E11320BAE1300240EA034000EB07080DF13A02404601210127E1
S2240C3D002FF004FB002800F07C814FF0000B0524002642F62E1CC0F2410C002F00F00282A2
S2240C3D2031209EE138F0E0FCB8F1000F4FF0000B89F8030000F08D8140460121012201232B
S2240C3D40CDE900BBCDF808B001242DF067F9002800F0C981042082E13078002800F0A681F2
S2240C3D60E0684FF000088078002800F0CF8138784AF64872C0EBC00009EBC001C868C97907
S2240C3D80C0F24602126846F20C530901C0F241031268595C80780D9156680121012201231B
S2240C3DA0CDE90088CDF808804FF001082DF036F9002800F0018200200C9003200D90DDE9F6
S2240C3DC00C067AE59DF83A000D9E6071584601212BF06CFF012800F06F81002840F071817D
S2240C3DE0B8F1FE0FC0F0C08138784AF64872C0EBC00009EBC000C0F24602C179126846F25C
S2240C3E000C5309011268C0F24103595C526801EB410102EB81014A68C06889680B92C2780A
S2240C3E200D91817803794779100240EA014018440C90EF200697FE2F08BF602004904FF036
S2240C3E4001084FF000064FF006094FF0000008BF6FF06F0805900FE042F62E10C0F24100EC
S2240C3E6000F8048009EB010000F10109BBF1EF0F08F1010880F048820B996FEA090008448D
S2240C3E80ADF83C000D985FFA88FB09EB000442F62E10C0F241002044431C0C9801215A4625
S2240C3EA00FAF009725F006F918B9BDF83C100029D2D1052800F000820699FF2903D1013877
S2240C3EC00128D3D808E00328059808BF013004990590C0B28142C9D13120287030F01EFE2F
S2240C3EE00126C3E738784AF64872C0EBC00009EBC000C0F24602C179126846F20C530901C8
S2240C3F001268C0F24103595C526801EB410102EB8101896842F62E12C0F2410211440662F9
S2240C3F20C0E90516504622F0FFFC00269BE04246300640F098802362C4E90523504622F060
S2240C3F40F3FC90E00DF13A0012F0D2FA022800F025810D9A002840F02681BDF83A0000286E
S2240C3F6000F0A88109F136000C90381D0026032300274FF000090B900FA80DF143019846C9
S2240C3F8017F0BAF802280BD00D9A01280FD0434698B90B980168181D884213D914200DE0B1
S2240C3FA00C9801270D9A07700A26434620E0222028700127012643461AE022200127012610
S2240C3FC0287015E0DDF83CE042F62E184FEA1E4C5B44C0F2410808EB030108F803C04FEAA4
S2240C3FE01E234B709DF8433081F802E0CB700346BDF83A0009F10109814599D2002FBBD0EF
S2240C400096E79DF83A000121607140462BF04EFE01285CD0002840F0CA80ABF10700ADF824
S2240C40203C000FA8E31D0090404601214A464FF0010B2BF0E5F9052800F04081002840F03A
S2240C40404081BDF83C0084F80690C41D4FF0000B66E189F804B089F805B00620002434B17F
S2240C4060222001262870F0B211B0BDE8F08FBBF1000F04D0012087F836000A26F3E70D9992
S2240C40804968884282BF142129700126002EEAD10C9A42F62E135921C0F2410399540121D7
S2240C40A089F801103862C7E9059047E703264FF000080020FFF701BC012100274FF0060976
S2240C40C04FE500274FF00609002600214AE54FF0000B062401271BE609980068814540F212
S2240C40E0CA801420BDE70FA812F002FA022800F0D980002840F0DA80BDF83C004FF0000B78
S2240C4100010A89F8041089F80500A6E703260020FFF7D3BB06244FF0000B00270026002F1E
S2240C41207FF4FEADBBF1000F05D00D99012081F836000A2697E70D9A300694D10998406811
S2240C4140844282BF14202870012630067FF48BAF089B59210CEB03000CF80310042141706D
S2240C41601462C2E90504E9E6F01FADF83C00E31D0FAF584601214246009724F09BFF0028D2
S2240C418040F08980BDF83C10002900F0848084F8068001F1070900270026B6E0012089F82E
S2240C41A036000A264EE52220012628704BE506244FF0000B0027ABE5DDF834800DF13A0038
S2240C41C012F096F9022800F08880002840F08C80BDF83A0008EB480106EB810182004E68E1
S2240C41E00332B24291BF002114232B700121032300284FF000080D9300F09F80B2424FF0A9
S2240C420000000C903FF6DBAD03200D904FF00008002000260C900B910FA80DF1430116F0B0
S2240C42206BFF022818D0D0B90F980D9A42F62E1C4FEA104E02EB0B01C0F2410C0CEB01030E
S2240C42400CF801E0010A59709DF843100432D9700B9998700D9205E001200C9001E04FF020
S2240C426001080121BDF83A0001368642BFF4A7AD0029D0D0A3E5089942F62E125920C0F278
S2240C4280410250540799062048700A98C0F82090C0E9051952E605282CD100264FF0060901
S2240C42A0012732E000244FF0010B53E501244FF0000B4FE50026C6E4012726E0002606241B
S2240C42C02FE00138022828D83120287030F026FC012606244FF0000B23E001200C900320B2
S2240C42E00D904FF000086AE500200C9003204FF0010863E5013802281AD83120287030F0AD
S2240C43000DFC01264FF00609002730F007FC0138B0FA80F04109FFF725BC4FF0000B0624DC
S2240C4320002630F0FBFB0746002818BF0127F0E400274FF006090026E7E700200C903EE5A0
S2240C43402DE9F04F81B02DED048BADF5007D39F004FF4BF20801C0F2460109680390A9BB2B
S2240C43604AF6D470C0F246000021016049F63040C0F24600018049F62E40C0F246000180E0
S2240C438049F64040C0F24600017049F63240C0F24600017049F63340C0F24600017042F27B
S2240C43A00000C6F200004FF4004139F0F3F84AF20000C6F200004FF4004139F0EBF842F6E0
S2240C43C00020C6F20100502139F0E4F84AF26C75C0F246052846242139F0DCF84AF6F06023
S2240C43E0C0F246000027C0E900774AF6F860C0F24600C0E900774AF6CC50C0F24600142134
S2240C440039F0C8F84BF20400C0F246004AF690694AF6406B0DF110080760C0F24609C0F215
S2240C4420460B4046C9E90077C9F80870CBE90077CBE9027739F00FFD4AF2147CC0F2460CD5
S2240C4440B8E89E0060469EC0B8E8DE0040F2800ADEC0B8F800106746018037F8063F46F297
S2240C4460EC707C88C0F24100D0F800E043EA0443FC88B8884AF6F87144F20006C0F246011A
S2240C4480C5F2005640EA04400968C5E9066006F58040C0F2030A06F5B8224FF0AA48286201
S2240C44A02846C5E900E1C5E902A2C5E9048330F0C6F9788839884BF20808C0F24608D8F8AA
S2240C44C0002041EA00414AF6F060C0F246003D46C0E900213C4635F8141F34F8086F6B88F2
S2240C44E0628841EA03434AF6F86146EA0242C0F24601C1E9002302F045F8608821882A880B
S2240C450041EA00406988D8F8003042EA0141C9E90030F889BA89C9F8081042EA0040798BD1
S2240C45203A8B42F2000542EA01414AF20002C6F20005C6F20002CBE90005CBE9021248463A
S2240C4540594619F04DFBD8F80060032EC0F0D184002047F60C71002705EB800252580130A6
S2240C45602E281744F8D149F6104042F20044C0F24600C6F201040760211D20464FF4FE7236
S2240C45803AF07EF942F20065C6F20105291D28464FF4FE72C4F8FC713AF072F9D4F8F4012C
S2240C45A049F62E42381A48BF4042C5F8FC0140F62450C0F247000168C0F246028F4249F690
S2240C45C03047C0F2460739884FF000001388B8BF581C108009B10139398040F62851C0F230
S2240C45E04701097880B2884224BF802038808C2EC0F07F8400210020002200BF54F822307D
S2240C4600184455F822300132802A1944F6D100EE101A01EE100AB8EE400AB8EE411A80EE0D
S2240C4620010A49F61441C0F2460142F600064AF6CC584AF21479C009C6F20106C0F24608DE
S2240C4640C0F2460981ED000A002100BF54F82120121A46F8212001318029F7D18020C0F2C3
S2240C466000204C4640F20041C8F8080034F8260FC0F20A01C8F80C106188C8F8106040EAFF
S2240C468001404BF20401C0F24601086040462BF00FF860882188002241EA0040002100BF7F
S2240C46A050F8223001321E2A1944F9D100F174020023002752F823500133292B2F44F9D17A
S2240C46C001EB81014900B1FBF7F149F62A42C0F24602117000210023002200BF50F821705A
S2240C46E0BB423CBF0A463B460131C829F6D149F62C41C0F246010A800022002150F82230EA
S2240C47000132994238BF1946642AF7D10022FF2350F823700133BA4238BF3A46B3F5007FE1
S2240C4720F6D100EE101A01EE102AB8EE400AB8EE411A80EE010A49F61840C0F246004AF22B
S2240C474000020021C6F20002002380ED000A42F20000C6F2010000BF0027092552F8254021
S2240C476001352D2D2744F9D100EE107AB8EE400ABCEEC00A10EE107A40F8217001313B4485
S2240C4780802902F58072E7D1D90948F21F530022C5F2EB1350F822707F1A57FB03F77D110C
S2240C47A005EBD77740F822700132802AF2D14BF20401C8F81000C0F2460140462AF078FF1E
S2240C47C0B9F82800B9F826100DF1100941EA004444F63C210027C0F2450120464FF40072B1
S2240C47E04B46049723F028FC42F60025C6F20105291D28464C223AF043F804989FED310A40
S2240C4800E86400BFE81990ED001A0437502F31EE000AF7D19FED2C1A49F6544020EE010A7B
S2240C4820C0F2460080ED000A9FED260A211D002240F2F313002000BF01EB820797ED001AB2
S2240C4840B8EE411AB4EE410AF1EE10FABCBFB0EE410A901C01329A42EED140F63C51C0F21D
S2240C4860470191ED001A49F63841C0F24601B8EE411A0860B4EE410A49F65041BCEEC00AFC
S2240C4880C0F24601F1EE10FA81ED000A20DD40F6365140F63852C0F24701C0F247020978BD
S2240C48A012689FED080A8B1A11448842B0EE402AB7EE001A38BFB0EE412A984288BFB0EE85
S2240C48C0420A07E000000000CDCC4C3D0000003C1FED040A49F64C4042F20007C0F246001E
S2240C48E0C6F2000780ED000A002039460022092351F8235001332D2B2A44F9D100EE102ADC
S2240C4900B8EE400ABCEEC00A10EE102A46F820200130802801F58071E8D149F6584306F122
S2240C4920F001C0F2460330463C2223F085FB40F62E50C0F24700047840F62F50C0F247003C
S2240C494005782046294630F019F849F6004AC0F2460A204629468AED000A30F017FA40F67B
S2240C4960345040F63551C0F24700C0F2470149F6044200780978C0F2460282ED000A2FF0E3
S2240C4980FDFF49F60840C0F2460080ED000A09F104004FF4F67138F0FDFD47F65038C0F2D3
S2240C49A0450840464FF4007138F0F4FD47F6505BC0F2450B58464FF4FE7138F0EBFD0020DC
S2240C49C0AC420FD858F82010224600BFD3B207EB002656F823300132D6B2AE421944F5D936
S2240C49E048F8201001308028EAD1D8F800C000216046002408EB810203465068984203D9FA
S2240C4A009268904288BF013401317E29F2D1D8E901E3D8E903620EEB03073344734449F666
S2240C4A201C4067441344C0F246003744059309F10803002504700497104608EB85029168FA
S2240C4A40064452693144114443F8251001357A2D0646F1D13A46002301250020002F18BF2C
S2240C4A60012200BFD10718BF384659F825700022874284BF01222B4601357B2DF2D1DDB23E
S2240C4A8000227A2D4FF0000713D859F825500121C3F17B0051FA83F3002700BF294659F88D
S2240C4AA023508D4205D201337C2B07F10107F5D1074640F6085049F62849C0F24700C0F2F5
S2240C4AC0460949F62943058889F80070C0F24603604600271A7000BF014608EB82004068D8
S2240C4AE00E1A38BF461AAE424BF8226002F1010284BF01371F707F2AEED100EE10CAB8EE9B
S2240C4B00401A00EE10EAB8EE400A31EE002A022008EB800191ED000A0130B8EE400A802822
S2240C4B2032EE002AF4D11FED970A022022EE009A02EE10EAB8EE422A31EE491A32EE492ACB
S2240C4B4021EE011A22EE022A32EE011A08EB800191ED002A0130B8EE422A32EE492A22EEA1
S2240C4B60022A802832EE011AF0D121EE000A10EE100A35F07BFB41EC100B1EF0A9F8B0EEF3
S2240C4B80408A19EE100AF0EE608A35F06FFB02460B4651EC180B20F02FFC2FF0C9FB49F66C
S2240C4BA02041C0F246019FEDDB1A00EE100A0860E0B220EE010A01EE100A49F64445B8EE77
S2240C4BC0411A49F62446C0F2460530EE010AC0F24606284686ED000A2AF016FE49F64844B8
S2240C4BE0C0F24604204625F0BDF840F64052C0F2470292ED000A9AED001AB8EE400A49F65C
S2240C4C00324149F63342B4EE401AC0F246010020C0F24602F1EE10FA0870107040F38D802C
S2240C4C2049F60440C0F2460090ED000A40F64450C0F2470090ED001AB4EE410AF1EE10FA31
S2240C4C407ADD40F60450C0F24700008895ED000A01EE100AB8EE411AB4EE410AF1EE10FA75
S2240C4C606ADD40F60650C0F24700008894ED000A01EE100AB8EE411AB4EE410AF1EE10FA64
S2240C4C805ADA49F61C4040F60A52C0F24600C0F247020078127890424ED240F61452C0F26D
S2240C4CA0470299F800001278904245D249F62C4040F61852C0F24600C0F247020088128836
S2240C4CC090424FF0000038D249F63042C0F24602128892BB49F61440C0F2460090ED000A04
S2240C4CE040F61C50C0F2470090ED001AB4EE410AF1EE10FA20DA49F61840C0F2460090ED95
S2240C4D00000A40F62050C0F2470090ED001AB4EE410AF1EE10FA0FDD40F61050C0F24700F1
S2240C4D2096ED000A90ED001AB4EE410AF1EE10FA02DA0120087000E0002040F64851C0F272
S2240C4D40470191ED000A49F60841C0F2460191ED001AB8EE400AB4EE401AF1EE10FA2BDD7C
S2240C4D6049F64C41C0F2460191ED000AB7EE001AB4EE410AF1EE10FA4FF000011ED149F6D2
S2240C4D805442C0F2460292ED000A40F64C52C0F2470292ED001A49F63343B4EE410AF1EE00
S2240C4DA010FAC0F246030DDD01221A7049F632430020C0F2460306E0002205E049F63343D5
S2240C4DC0C0F2460300221970002818BF012049F640411043C0F24601087045F69050C6F2A5
S2240C4DE0010001788278C378477842EA032241EA072141EA02410291417906460191417A3C
S2240C4E0090F80CA0009190F80DB090F80E9090F80FC0037C477C857CC47C10F8041F49F60D
S2240C4E205C4EDDF80880C0F2460ECEF8008090F802E0C078019A4EEA002041EA022141EA00
S2240C4E40004049F6604E16F8081FC0F2460ECEF80000B078F678009A40EA062041EA022145
S2240C4E6041EA004049F66441C0F24601086049F66840C0F2460080F800A049F66940C0F2E0
S2240C4E80460080F800B049F66A40C0F2460080F8009049F66B40C0F2460080F800C049F651
S2240C4EA06C40C0F24600037049F66D40C0F24600077049F66E40C0F24600057049F66F4027
S2240C4EC0C0F2460004704BF21800C0F2460049F670410278C0F2460143780A7049F671417F
S2240C4EE0C0F2460180780B7049F67241C0F24601087039F032F90399401A4BF20C01C0F28C
S2240C4F00460108600DF5007DBDEC048B01B0BDE8F08F00BF0000C84280B588B039F00EFBDD
S2240C4F20ADF81A00BDF81A0037F025FF0590002004900390BDF81A1042F2C020C0F24600C0
S2240C4F4030F82110ADF80410BDF81A1000EB81004088ADF80200BDF80400BDF8021088422A
S2240C4F6003DDFFE70FF0AAF9FFE7BDF80400ADF80000FFE7BDF80000BDF8021088425DDA11
S2240C4F80FFE7BDF8001042F29820C0F2460050F82100079007990020086007994860BDF84C
S2240C4FA0000007990881BDF8000000EB400142F22020C0F2460000EB810004900498006866
S2240C4FC0A8B3FFE7049800680089ADF80800BDF808000599098C084228D0FFE704984089C8
S2240C4FE0ADF80A00BDF80A1043F61C10C0F2460050F8210003900498006800680799086055
S2240C50000498006840680799486003980089ADF80600BDF8000003990A680DF1060100F004
S2240C50200FF8BDF8060003990881FFE7FFE7FFE7BDF800000130ADF800009BE708B080BDC4
S2240C504080B586B0ADF8160004910392BDF81600022134F00DFF012840F0C380FFE7BDF89A
S2240C5060161042F29820C0F2460050F82100006802904FF6FF70ADF8060004980088ADF88A
S2240C5080040000208DF8030003980299884242D2FFE7FFE79DF8030001283BD0FFE7BDF80C
S2240C50A004004FF6FF71884204D1FFE701208DF803002EE0BDF8041042F29820C0F246003D
S2240C50C050F821000068039988421DD3FFE7BDF8041042F29820C0F2460050F82100006834
S2240C50E00299884210D8FFE7BDF80400ADF80600BDF8041042F29820C0F2460050F82100F2
S2240C51000089ADF8040003E001208DF80300FFE7FFE7BFE741E0FFE79DF8030001283BD07B
S2240C5120FFE7BDF804004FF6FF71884204D1FFE701208DF803002EE0BDF8041042F2982019
S2240C5140C0F2460050F821000068039988420DD2FFE7BDF8041042F29820C0F2460050F855
S2240C5160210000680299884210D8FFE7BDF80400ADF80600BDF8041042F29820C0F2460051
S2240C518050F821000089ADF8040003E001208DF80300FFE7FFE7BFE7FFE7BDF80400BDF811
S2240C51A0162042F29821C0F2460151F822100881BDF806004FF6FF7188420CD0FFE7BDF80D
S2240C51C01600BDF8062042F29821C0F2460151F82210088104E0BDF8160004990880FFE729
S2240C51E0FFE706B080BD80B588B0ADF81E0000208DF81D0049F25470C0F240000690BDF897
S2240C52001E0000EB800143F60810C0F2460050F8210004900BF075FD0590BDF81E1043F68F
S2240C52201C10C0F2460050F821000390039800680290039808300190FFE79DF81D0080BB71
S2240C5240FFE7019800884FF6FF71884204D1FFE701208DF81D0023E00198018842F2982028
S2240C5260C0F2460050F8210000680299BDF81E200DF002FF049988420DD8FFE7BDF81E00C3
S2240C52800199069A039BEE460DF1140CCEF800C000F00CF803E001208DF81D00FFE7FFE7E7
S2240C52A0CBE705980BF037FD08B080BD80B586B0DDF820C0ADF81600049103920293049834
S2240C52C00088ADF80600049A108842F29821C0F2460151F820000089108004980088029A2C
S2240C52E01081BDF8060051F820100881BDF8060000EB400142F22020C0F2460000EB810090
S2240C53004068A8B1FFE7089800680BF004FDBDF8060000EB400142F22020C0F2460000EB53
S2240C53208100406880470BF0ECFC08990860FFE7BDF8061042F29820C0F2460050F8210082
S2240C5340406828B3FFE7BDF8061042F29820C0F24600009050F8211008684968BDF816200F
S2240C53600DF061FE0099BDF8062051F82210086002980089ADF80400BDF8060002994A6895
S2240C538001A9FFF75DFEBDF8040002990881FFE706B080BD80B586B0ADF8160000208DF880
S2240C53A015000BF0AEFC0490BDF8161042F29820C0F2460050F821000089884204D1FFE758
S2240C53C005208DF8150024E0BDF8160000EB400142F22020C0F2460000EB81004089ADF8BC
S2240C53E00E00BDF80E1043F61C10C0F2460050F82100029002980089ADF80600BDF81600CA
S2240C54000DF1060100F00CF8BDF8060002990881FFE704980BF07FFC9DF8150006B080BD0E
S2240C542080B584B0ADF80E000291BDF80E00022134F01EFD012801D0FFE754E04FF6FF70BF
S2240C5440ADF8060002980088ADF80400FFE7BDF804004FF6FF71884244D0FFE7BDF80400F4
S2240C5460BDF80E1088422CD1FFE7BDF806004FF6FF7188420CD1FFE7BDF8041042F29820E9
S2240C5480C0F2460050F821000089029908800EE0BDF8040042F29821C0F2460151F82000F8
S2240C54A00089BDF8062051F822100881FFE7BDF8040042F29821C0F2460151F820100881EC
S2240C54C010E0BDF80400ADF80600BDF8041042F29820C0F2460050F821000089ADF804001F
S2240C54E0FFE7B4E7FFE704B080BD80B584B0ADF80E00029100208DF8070037F071FE0090C2
S2240C5500029820B9FFE70B208DF8070014E0BDF80E00022134F0ACFC012804D0FFE70320BE
S2240C55208DF8070007E0BDF80E00029900F008F88DF80700FFE7FFE79DF8070004B080BDB4
S2240C554080B586B0ADF81600049100208DF80F000BF0D7FB0290BDF8161042F29820C0F2F3
S2240C5560460050F821000089884204D1FFE705208DF80F0023E0BDF8160000EB400142F276
S2240C55802020C0F2460000EB81004089ADF80600BDF8062043F61C10C0F2460050F8220040
S2240C55A00068BDF8163042F29821C0F2460151F8231009680DF060FD04990860FFE70298C5
S2240C55C00BF0A9FB9DF80F0006B080BD80B584B0ADF80E00029100208DF8070037F000FE04
S2240C55E00090029820B9FFE70B208DF8070012E0BDF80E00022134F03BFC012804D0FFE7E4
S2240C560003208DF8070005E0BDF80E00029900F006F8FFE7FFE79DF8070004B080BD84B00C
S2240C5620ADF80E000291BDF80E0000EB400142F22020C0F2460000EB81004089ADF80600D8
S2240C5640BDF8060000EB800143F60810C0F2460000EB810000900098006802990860009832
S2240C5660406802998860009880680299486004B0704780B582B0ADF8060000208DF8050004
S2240C568037F0AEFD0090BDF80600022134F0F0FB012804D0FFE703208DF8050006E0BDF87F
S2240C56A00600FFF777FE8DF80500FFE79DF8050002B080BD80B586B0ADF81600049103921F
S2240C56C000208DF80B0037F08BFD0190BDF81600022134F0CDFB012804D0FFE703208DF864
S2240C56E00B0008E0BDF816000499039A00F007F88DF80B00FFE79DF80B0006B080BD80B574
S2240C570088B0ADF81E0006910592BDF81E000699059A00F018F98DF813009DF813000028D5
S2240C572057D1FFE70BF0EDFA0390BDF81E1042F29820C0F2460050F821000089884207D07B
S2240C5740FFE703980BF0E7FA07208DF813003FE0BDF81E0000EB400142F22020C0F2460092
S2240C576000EB81004089ADF80A00BDF80A1043F61C10C0F2460050F821000190019800680D
S2240C57800699BDF80A200DF04EFCBDF81E2042F29821C0F2460151F8222010600598BDF80D
S2240C57A01E2051F82210486001980089ADF80200BDF81E0001990A680DF10201FFF740FC9C
S2240C57C0BDF802000199088103980BF0A4FAFFE7FFE79DF8130008B080BD80B586B0ADF831
S2240C57E016000491039200208DF80B0037F0F8FC0190BDF81600022134F03AFB012804D0B8
S2240C5800FFE703208DF80B0008E0BDF816000499039A00F007F88DF80B00FFE79DF80B00EC
S2240C582006B080BD80B58AB0ADF8260008910792BDF826000899079A00F0D3F88DF81B0080
S2240C58409DF81B0000287AD1FFE70BF05AFA0590BDF8261042F29820C0F2460050F8210012
S2240C58600089884207D0FFE705980BF054FA07208DF81B0062E0BDF8260000EB400142F2DD
S2240C58802020C0F2460000EB81004089ADF81200BDF8120000EB800143F60810C0F2460057
S2240C58A050F821000390BDF8121043F61C10C0F2460050F821000290029800680899BDF854
S2240C58C012200DF0D9FB039988420BD8FFE70898BDF8262042F29821C0F2460151F8221089
S2240C58E008600DE00898039908440130BDF8262042F29821C0F2460151F822100860FFE7DF
S2240C59000798BDF8262042F29821C0F2460151F82210486002980089ADF80600BDF826002A
S2240C592002990A680DF10601FFF78AFBBDF806000299088105980BF0EEF9FFE7FFE79DF80A
S2240C59401B000AB080BD87B0ADF81A000591049200208DF80F00059820B9FFE708208DF845
S2240C59600F003AE0BDF81A0000EB400142F22020C0F2460000EB81004089ADF80C00BDF8EB
S2240C59800C0000EB800143F60810C0F2460000EB81000290029840680190029800680090D2
S2240C59A005980099884204D9FFE708208DF80F0012E0049870B1FFE704980099884205D8E6
S2240C59C0FFE704980199884204D2FFE708208DF80F0000E0FFE7FFE7FFE79DF80F0007B06B
S2240C59E0704787B0ADF81A000591049200208DF80F00BDF81A0000EB400142F22020C0F2E8
S2240C5A00460000EB81004089ADF80C00BDF80C0000EB800143F60810C0F2460000EB810067
S2240C5A20029002980068019002984068009005980199884204D9FFE708208DF80F0012E0EC
S2240C5A40049870B1FFE704980199884205D8FFE704980099884204D2FFE708208DF80F0058
S2240C5A6000E0FFE7FFE79DF80F0007B0704770472DE9F04F81B04BF24D06C0F246063078E4
S2240C5A80002800F0008546F62009C0F2410999F80000022840F0F78446F61E0AC0F2410A30
S2240C5AA09AF80000052862D338F05EFB022800F0EA84002840F086809AF8000005380F2874
S2240C5AC000F26C84DFE810F010008301A901BA01CA01F701FB016502BD02C10229036903D3
S2240C5AE08C03AE03D6031B044AF66870C0F2460046F600010068C0F241010988426801EB8D
S2240C5B00410002EB40010B794A88DBB9497946F25863C0F241030F01DD5903EB01114C6876
S2240C5B20AD1ADD5104F540734B6045F6D021C0F2410101EB8003022741F8205004F58071BD
S2240C5B401F72596045F6D021C0F2410151F8200046F25C71C0F24101096835F0ABFB0146E5
S2240C5B600120002908BF0220062100F085BC042800F2FB80DFE800F0034C7CA8BF0046F6CB
S2240C5B801B00C0F24100002101704AF6C460C0F24600006846F61C02C0F241020068117058
S2240C5BA043F63451C0F241014FF4007235F06BFB0121002808BF02210A208AF8000089F881
S2240C5BC00010D2E099F80000032800F05C849AF8000005380F2800F25684DFE810F0D800F5
S2240C5BE0D800D8001000D800E10310001000E503100010001000100010001000100038F078
S2240C5C00B3FA317889F80000032900F0BA8079E346F60000C0F24100008845F6D02100EB1C
S2240C5C204000C0F2410101EB8002127A022A00F09280012A00F09180002A40F0908051F818
S2240C5C40200046F26071C0F241010B6846F2587146F26472C0F24101C0F2410209681268C0
S2240C5C60184435F010FB0121002808BF022177E04AF66870C0F2460046F600010068C0F295
S2240C5C8041010988426801EB410002EB40010A79012A3AD145F6D023C0F2410303EB8002CE
S2240C5CA0127A022A6FD14A8846F25C71C0F2410153F82000096835F0FDFA012100284FF08F
S2240C5CC0060008BF022178E746F60000C0F24100008845F6D02100EB4000C0F2410101EB76
S2240C5CE08005287A01281AD114208AF80000002089F8000039E01BF0A3FA9AF8001089F81D
S2240C5D0000000E2931D009202DE01BF099FA9AF8001089F800000E2927D0052023E043F6B4
S2240C5D203454C0F241045521204600F8011BFF21FF2237F029FC6868214600F580704FF4F7
S2240C5D40807235F0B7FA0121002808BF022189F80010082007E0042102E0052100E0012167
S2240C5D6089F8001014208AF8000099F80000022800F08983002800F0C5823078032840F0B2
S2240C5D80C1820020BFE2012089F80000EDE74AF66870C0F2460046F600010068C0F24101CF
S2240C5DA00988406801EB410100EB4100407946F25861C0F2410101EB00125268000102F5F1
S2240C5DC0C0620A5038F0D0F989F800009AE243F63454C0F24104AA21204600F8011BFF212B
S2240C5DE0FF2237F0D1FB46F60000C0F24100008845F6D02100EB4000C0F2410101EB800010
S2240C5E00406821464FF4807235F054FA01460120002908BF022007212EE346F60000C0F219
S2240C5E204100008845F6D02100EB4000C0F2410101EB80010020087214211DE346F60000C5
S2240C5E40C0F24100008845F6D02100EB4000C0F2410101EB800001210172EDE04AF6687085
S2240C5E60C0F2460046F600010068C0F241010988406801EB410100EB4100427946F258633F
S2240C5E80C0F2410317014088DD5903EB0212281A5568D85105F54073536045F6D022C0F27C
S2240C5EA0410202EB8103022742F8210005F580701F725860C0E0012018F030FBDEE246F676
S2240C5EC01B00C0F2410000784AF6C461C0F2460151F8300046F61C01C0F24101097843F64D
S2240C5EE0345800EBC10250F831405068C0F24108A8F101010022012323FA02F70832202A70
S2240C5F0001F8017FF8D108F10301002224FA02F30832202A01F8013FF8D108F10701002253
S2240C5F2020FA02F30832202A01F8013FF8D12044013008F10B01002220FA02F30832202A6C
S2240C5F4001F8013FF8D108F5007008F11101884288BF0146A1EB0800A0F1100108F110001F
S2240C5F60FF2237F011FBAA2088F8000108F20110FF21FF2237F008FB204641464FF4007259
S2240C5F8035F098F901460120002908BF02200C2172E246F61B07C0F2410746F61C0C3D78CE
S2240C5FA04AF6C46EC0F2410C46F25868C0F2460E9CF80030C0F241085EF8351008EB0514FB
S2240C5FC00120A06001EBC30051F833104068237301F500732A01636008446B1C48F80200AA
S2240C5FE03B704DB3DDB208EB05139868002800F0F581187B5EF835102A0101EBC00751F868
S2240C600030107F6801F50070394446F24C7548F8021043F63451C0F24105C0F241014FF42D
S2240C602040722860586035F02EF901460120002908BF02200D211FE214208AF80000002092
S2240C60401CE201200FF0D8FB18E246F61B00C0F2410000784AF6C46146F62802C0F24601BE
S2240C6060C0F2410251F83010127843F6345801EBC20351F8324046F25861C0F2410101EB05
S2240C6080001080685968C0F241080130A8F10102002320FA03F70833202B02F8017FF8D16E
S2240C60A008F10302002324FA03F70833202B02F8017FF8D108F10702002321FA03F7083358
S2240C60C0202B02F8017FF8D12144084408F10B01002220FA02F30832202A01F8013FF8D1B4
S2240C60E008F5007008F11101884288BF0146A1EB0800A0F1100108F11000FF2237F044FAFA
S2240C6100204641464FF4807235F0D4F801460120002908BF02200F21AEE14AF66870C0F258
S2240C6120460046F60408D0F800C0C0F24108B8F80020BCF800309A4280F03E8146F61B0126
S2240C6140DCF80400C0F241010D7802EB420100EB4100041D45F6D020C0F2410000EB8100D6
S2240C616000F1080106E001320634934201F10C0100F031816778207891F800B0AF42F2D1E7
S2240C6180BBF1000F00F04881012808BFBBF1020FE9D191B24FF0010B3FE14AF6687146F610
S2240C61A00400C0F24601C0F2410009680088496800EB400001EB40014A8845F6D021C0F22C
S2240C61C0410151F8200043F63451C0F2410135F05AF801460120002908BF022011214BE102
S2240C61E04AF6687146F60400C0F24601C0F2410009680088496800EB400001EB400042887E
S2240C620046F25470C0F24100006843F63451C0F2410135F04FF801460120002908BF02207E
S2240C6220122129E143F63454C0F24104AA21204600F8011BFF21FF2237F0A6F946F2507014
S2240C6240C0F2410000682146A0F500704FF4807235F030F80146002946F60401C0F241013F
S2240C62600A884FF0010002F1010208BF02200A800F2101E146F61B00C0F2410001784AF6BD
S2240C6280C46046F62802C0F24600C0F2410250F8310092F800E000EBCE0250F83E404AF6D2
S2240C62A06870C0F24600D0F800C05268BCF80000131904F5007450B3DCF8042045F6D02543
S2240C62C0C0F24105023204350DE01788DB1B04F5807704F5407445F8043C2F600C350138A3
S2240C62E002F1060213D0D7788F42F7D12F79002FEBD0022FF2D19778012FE6D0EEE7002057
S2240C630089F800000120307001B0BDE8F08F46F25860C0F2410000EB01120901435046F69B
S2240C63202400C0F24100956800780135042882F80CE0546095608AF8000042D002282DD193
S2240C634046F60000C0F241000088DCF8041000EB400001EB40010A79012A4FD145F6D02339
S2240C6360C0F2410303EB8002127A022A40F004814A8846F25C71C0F2410153F82000096892
S2240C638034F098FF0121002808BF0221062089F800108AF8000099F800006FE001206DE076
S2240C63A0002018F0BBF802E000200FF025FA89F8000001B0BDE8F08F4FF0010B00201146B9
S2240C63C02BE01AF03DFF9AF8001089F800000E2954D0092150E019461A461EE05EF835102B
S2240C63E00022D1E900018CF8002035F0D1FB01460120002908BF02200B213DE01AF020FF2E
S2240C64009AF8001089F800000E291CBF05208AF8000099F8000031E091B29942A8F800101F
S2240C642034D146F61B00C0F2410000784AF6C461C0F2460151F8300046F62801C0F2410154
S2240C6440097843F63454C0F2410450F83150AA21204600F8011BFF21FF2237F095F805F5F5
S2240C6460807021464FF4807234F024FF01460120002908BF022013218AF80010022889F84D
S2240C648000007FF477AC01B0BDE8F08FDCF8041002EB420201EB420331F8121046F25472ED
S2240C64A0C0F2410243F634575B88D2F800C0C0F241077D1E002421FA04F20834102C05F866
S2240C64C0012FF8D17D1C002423FA04F20834102C05F8012FF8D1ACEB0304FB1C002524FA7C
S2240C64E005F20835202D03F8012FF8D161444A1C21F00041012808BF42F00041F81D00221F
S2240C650021FA02F30832202A00F8013FF8D107F5407007F10D01884288BF0146C81BA0F157
S2240C65200C0107F10C00FF2237F02EF846F25075C0F24105286839464FF4807234F0BAFEB6
S2240C654001460120002908BF0220BBF1000F06D0B8F800100131A8F800100F2100E010213C
S2240C65608AF80010296846F25472C0F2410201F540711460296081E7012089F8000099F8B5
S2240C658000007BE72DE9F04F85B0804610F8042F4E7843788778C07842EA032247EA0020A3
S2240C65A042EA004C08788B78CF7840EA062043EA07234F7911F8046F40EA0340019088789F
S2240C65C0C97846EA072340EA012043EA004047F6501E03900020C0F2450E00BF0CEBC0017D
S2240C65E01CF830304E788D780EEBC007CC784A790EF83030BD707E7011F8043FFC708C7847
S2240C6600C97801307A7107F8043F4028BC70F970E4D198F8000098F8021098F8032098F8A3
S2240C6620013041EA022140EA032047F2C0099FED080A45F6C06CCDF8088040EA014000229C
S2240C6640C0F24509C0F2450CF046009006E000BF3333733F234AFB3FEBE276BF09EB020004
S2240C666019F8021043788478C57841EA032144EA052341EA0341467901EE101A10F8041FDB
S2240C6680B8EEC11A8378C07821EE001A41EA062143EA0020BDEEC11A41EA004011EE104A23
S2240C66A001EE100AB8EEC11A21EE001ABDEEC11A11EE100A049008EB020018F8021045780F
S2240C66C08678C77841EA052146EA0725437941EA054110F8045F01EE101A8678C07845EAA9
S2240C66E0032346EA0020B8EEC11A43EA00400CEB0203BDEEC11A1CF802505E789F78E64624
S2240C670093F803C011EE101A01EE100AB8EEC11A45EA062547EA0C27BDEEC11A45EA0747A6
S2240C6720CB4611EE100A93F8059001EE107A13F8047FB8EEC11AB1EE411A9D78DB78BDEE69
S2240C6740C11A11EE106A47EA092745EA0323214446F2C04447EA0343C0F24504314401EEA7
S2240C6760103AA7180E0EB8EEC11AA154FE700E0C090AB1EE411A79700499BDEEC11A11EECD
S2240C6780103A08441844010A0832F446D946BE70797107F8040F010E000CB2F5007FF97084
S2240C67A0B8707FF45BAF0022C24600BFA0188478C77809EB020191F80290CD788C70447838
S2240C67C0CF70477946F6C028C0F2450891F801C04E794C704F711BF8024011F8047F08EB25
S2240C67E0020308F802408C785E71CE78DD7083F8029083F801C003F8047FDE709C700EEBC1
S2240C6800020345F6C008C0F24508DC7808EB02071EF802605D79FC700AEB020408F80260F9
S2240C68207D71A578E67893F802909D706578DE70667993F801C05D705E7187F8029013F8A6
S2240C6840049F87F801C093F803C09E7807F8049F87F803C0BE7046F2C047C0F24507BF5C76
S2240C686010F8046F0BF802708778C078D0460E708F70C87018F8020014F8041F0EF80200CC
S2240C6880A078DA469870E07846F2C0440832D946C246C0F24504B2F5007F1970D87085D16A
S2240C68A0009845F6C008C0F24508F2467546B8B946F6C020C0F245004FF4007136F06AFE74
S2240C68C047F2C000C0F245004FF4007136F062FE46F2C040C0F245004FF4007136F05AFE1C
S2240C68E0DDF804C00020A3460BEBC0011BF830204F788E780CEBC003CD784C790CF83020E6
S2240C69009E705F7011F8042F01308F78C978DD705C7103F8042F40289F70D970E4D1029B7A
S2240C69201FEDB40A18789978DA785B7841EA022140EA03201FEDB81A46F6C02440EA014CA6
S2240C69400020C0F2450400BF09EB000191F8002291F8023291F8037291F8016243EA0723AE
S2240C696042EA062242EA034202EE102A91F8072291F8063291F8057291F8041243EA0222B4
S2240C698041EA072141EA024103EE101A211891F8002291F8023291F8037291F8016243EA52
S2240C69A0072342EA062242EA034204EE102A91F8072291F8063291F8057291F8041243EA6C
S2240C69C0022241EA072141EA024105EE101A0BEB00011BF800204B788F78CE7842EA032219
S2240C69E047EA062342EA03420B4613F8047F4D7906EE102A9A78DB7847EA052742EA0322D5
S2240C6A0047EA024207EE102A08EB000292F8003292F8027292F8036292F8015247EA0627E8
S2240C6A2043EA052343EA074300EE903A92F8073292F8067292F8056292F80422B8EEC22AC9
S2240C6A4022EE002A47EA032342EA0622BDEEC22A42EA034212EE103AB8EEC42A22EE012A1F
S2240C6A60BDEEC22A04EE102A12EE102AB8EEC62ABDEEC22A1A4412EE103AB8EEE02AB1EEE4
S2240C6A80422ABDEEC22A1A4412EE103AB8EEC32A1A4422EE002A130EBDEEC22A81F80332A9
S2240C6AA0130C81F8023212EE103AB8EEC52A22EE012ABDEEC22A81F80022120A81F80122F5
S2240C6AC012EE102AB8EEC72ABDEEC22A1A4412EE103AB8EEC42AB1EE422ABDEEC22A1A4401
S2240C6AE012EE103A1A44130E083081F80732130C81F80422120AB0F5007F81F8063281F8AA
S2240C6B0005227FF421AF002009EB000292F80772211892F8066281F8077292F8057281F84A
S2240C6B20066292F8046281F8057292F8037292F8003281F8046292F8026281F8037292F8FC
S2240C6B40017281F8026281F8017281F800320AEB000191F8077291F8066208EB000383F8E3
S2240C6B60077291F8057283F8066291F8046283F8057291F8037283F8046291F8026283F880
S2240C6B80037291F8017283F8026291F8006283F8017283F800620BEB000393F8027293F85B
S2240C6BA0036282F8027293F8007282F8036293F8016282F8007293F8067282F8016293F850
S2240C6BC0076282F8067293F8047282F8076293F8056282F8047282F805629A78DF7881F8C0
S2240C6BE002221BF8002081F803725F7881F800221A4681F8017212F8047F5B7981F8047231
S2240C6C009778D2780830B0F5007F81F8053281F8067281F807227FF477AFBCF1010F17D826
S2240C6C2004F500704FF40071644636F0B3FC09F500704FF4007136F0ADFC0BF500704FF403
S2240C6C40007136F0A7FCA44646F6C024C0F245049FEDDA0A9FEDDA1A002000BF09EB000120
S2240C6C6091F8002491F8023491F8037491F8016443EA072342EA062242EA034202EE102A63
S2240C6C8091F8072491F8063491F8057491F8041443EA022241EA072141EA024103EE101A9C
S2240C6CA0211891F8002491F8023491F8037491F8016443EA072342EA062242EA034204EE22
S2240C6CC0102A91F8072491F8063491F8057491F8041443EA022241EA072141EA024105EE4A
S2240C6CE0101A0BEB000191F8002291F8023291F8037291F8016243EA072342EA062242EA39
S2240C6D00034206EE102A91F8072291F8063291F8057291F8046243EA022246EA072343EAB5
S2240C6D20024207EE102A08EB000292F8003492F8027492F8036492F8015447EA062743EAC1
S2240C6D40052343EA074300EE903A92F8073492F8067492F8056492F80424B8EEC22A22EEBB
S2240C6D60002A47EA032342EA0622BDEEC22A42EA034212EE103AB8EEC42A22EE012ABDEE61
S2240C6D80C22A04EE102A12EE102AB8EEC62ABDEEC22A1A4412EE103AB8EEE02AB1EE422A00
S2240C6DA0BDEEC22A1A4412EE103AB8EEC32A1A4422EE002A130EBDEEC22A81F80334130CD1
S2240C6DC081F8023412EE103AB8EEC52A22EE012ABDEEC22A81F80024120A81F8012412EEEB
S2240C6DE0102AB8EEC72ABDEEC22A1A4412EE103AB8EEC42AB1EE422ABDEEC22A1A4412EEDE
S2240C6E00103A1A44130E083081F80734130C81F80424120AB0F5007F81F8063481F8052457
S2240C6E207FF41CAF002000BF09EB000292F80774211892F8066481F8077492F8057481F88C
S2240C6E40066492F8046481F8057492F8037492F8003481F8046492F8026481F8037492F8C9
S2240C6E60017481F8026481F8017481F800340AEB000191F8077491F8066408EB000383F8B4
S2240C6E80077491F8057483F8066491F8046483F8057491F8037483F8046491F8026483F84D
S2240C6EA0037491F8017483F8026491F8006483F8017483F800640BEB000393F8027493F82A
S2240C6EC0036482F8027493F8007482F8036493F8016482F8007493F8067482F8016493F81D
S2240C6EE0076482F8067493F8047482F8076493F8056482F8047482F8056493F8022293F837
S2240C6F00037281F8022493F8002281F8037481F8002493F8062293F8017281F8062493F833
S2240C6F20042281F8017493F8077281F8042493F805220830B0F5007F81F8077481F80524E3
S2240C6F407FF472AFBCF1010F11D804F580604FF4007136F01FFB09F580604FF4007136F061
S2240C6F6019FB0BF580604FF4007136F013FB039C002000BF0BEB000191F8002491F8013444
S2240C6F8091F80274251891F803642254AF706B7091F8072491F8063491F8057491F804142A
S2240C6FA00830EE706F7105F8041FB0F5007FAB70EA70DFD105B0BDE8F08F00BF14D0EC3F3A
S2240C6FC0CD3B5EBF0020704780B586B00020049037F08AFA012840F04B82FFE746F674011D
S2240C6FE0C0F24101022036F059FF46F67301C0F24101032036F052FF46F67501C0F2410108
S2240C7000042036F04BFF46F65601C0F24101082036F044FF46F65C01C0F24101072036F0D9
S2240C70203DFF46F65A01C0F241010A2036F036FF46F65701C0F24101092036F02FFF46F6B2
S2240C70406B01C0F241012D2036F028FF46F66C01C0F24101302036F021FF46F65801C0F2AB
S2240C70604101322036F01AFF46F66101C0F241010C2036F013FF46F67B01C0F24101152055
S2240C708036F00CFF46F66201C0F24101242036F005FF46F66501C0F24101252036F0FEFEB0
S2240C70A046F66301C0F241012A2036F0F7FE46F66701C0F24101292036F0F0FE46F63A015A
S2240C70C0C0F24101282036F0E9FE46F66401C0F24101272036F0E2FE46F66601C0F24101DD
S2240C70E02C2036F0DBFE46F67C01C0F24101432036F0D4FE46F65E01C0F24101102036F047
S2240C7100CDFE46F66F01C0F24101122036F0C6FE46F66901C0F241013D2036F0BFFE46F6C1
S2240C71206801C0F241013C2036F0B8FE41200DF1160136F0B3FEBDF8160000EE100AB8EEE3
S2240C7140400A9FEDBE1A20EE010A46F2DC70C0F2410080ED000A46F67F01C0F24101422057
S2240C716036F09CFE46F67A01C0F24101052036F095FE06200DF1150136F090FE9DF815001D
S2240C718034F0ACF941EC100B9FEDAD1B53EC112B51EC100B22F08EF841EC100B51EC100B6E
S2240C71A02DF0C6F800EE100A9FEDA71A30EE010A46F2D470C0F2410080ED000A46F6390109
S2240C71C0C0F24101012036F069FE46F67D01C0F24101442036F062FE46F67601C0F24101BD
S2240C71E0142036F05BFE46F67201C0F241013E2036F054FE46F63B01C0F241013F2036F061
S2240C72004DFE46F64F01C0F24101402036F046FE46F67E01C0F24101462036F03FFE46F614
S2240C72206001C0F241011A2036F038FE46F65901C0F241011B2036F031FE46F67101C0F2D8
S2240C724041011C2036F02AFE46F66D01C0F241011D2036F023FE46F65B01C0F241011E2065
S2240C726036F01CFE46F67701C0F241011F2036F015FE46F65D01C0F24101202036F00EFE9D
S2240C728046F66E01C0F24101212036F007FE46F65F01C0F24101222036F000FE46F670012F
S2240C72A0C0F24101232036F0F9FD46F65501C0F24101362036F0F2FD46F65301C0F24101F5
S2240C72C0372036F0EBFD46F65001C0F24101382036F0E4FD46F65101C0F24101392036F057
S2240C72E0DDFD46F65201C0F241013A2036F0D6FD46F65401C0F241013B2036F0CFFD0020DB
S2240C73008DF80F0035200DF10F0136F0C7FD9DF80F00E8B9FFE7342004A936F0BFFD0498D1
S2240C732035F0E2FA41EC100B9FED491B53EC112B51EC100B21F0BEFF41EC100B51EC100BC2
S2240C73402CF0F6FF46F2D871C0F241010860FFE70020ADF80C00912003A9019136F09EFDC7
S2240C7360BDF80C0034F0BAF841EC100B9FED3A1B53EC112B51EC100B21F09CFF41EC100B75
S2240C738051EC100B2CF0D4FF019946F2D072C0F2410210608F2036F081FDBDF80C0034F0E4
S2240C73A09DF841EC100B9FED2E1B53EC112B51EC100B21F07FFF41EC100B51EC100B9FED7C
S2240C73C02A0B53EC102B18F096F841EC100B51EC100B2CF0ADFF46F2CC71C0F2410108601E
S2240C73E046F67801C0F241018B2036F057FD46F67901C0F241018C2036F050FD46F66A013E
S2240C7400C0F24101442036F049FD4AF6D060C0F246000068C043800038B9FFE74BF25701D8
S2240C7420C0F246010120087006E04BF25701C0F2460100200870FFE7B9E200BF0000803DA0
S2240C7440000000000000E03F000020C200BF00BF9A9999999999B93FFCA9F1D24D62503F67
S2240C7460000000000000503F000000000000084046F64D01C0F24101932036F00FFD46F685
S2240C74804401C0F24101942036F008FD46F64301C0F24101952036F001FD46F64C01C0F23B
S2240C74A04101962036F0FAFC46F64601C0F24101972036F0F3FC46F64701C0F24101982034
S2240C74C036F0ECFC46F64801C0F24101992036F0E5FC46F64901C0F241019A2036F0DEFC20
S2240C74E046F64B01C0F241019B2036F0D7FC46F64A01C0F241019C2036F0D0FC46F64501A0
S2240C7500C0F241019D2036F0C9FC46F64E01C0F241019E2036F0C2FC46F64001C0F241012C
S2240C75209F2036F0BBFC46F64101C0F24101A02036F0B4FC46F64201C0F24101A12036F03C
S2240C7540ADFC46F63C01C0F24101A22036F0A6FC46F63D01C0F24101A32036F09FFC46F64C
S2240C75603F01C0F24101A42036F098FC46F63E01C0F24101A52036F091FC46F65601C0F21C
S2240C758041014C2036F08AFC46F65C01C0F241014B2036F083FC46F65A01C0F241014E20EA
S2240C75A036F07CFC46F65701C0F241014D2036F075FC46F66B01C0F24101712036F06EFCD3
S2240C75C046F66C01C0F24101742036F067FC46F65801C0F24101762036F060FC46F66101A1
S2240C75E0C0F24101502036F059FC46F67B01C0F24101592036F052FC46F66201C0F241016F
S2240C7600682036F04BFC46F66501C0F24101692036F044FC46F66301C0F241016E2036F097
S2240C76203DFC46F66701C0F241016D2036F036FC46F63A01C0F241016C2036F02FFC46F6FF
S2240C76406401C0F241016B2036F028FC46F66601C0F24101702036F021FC46F67C01C0F216
S2240C76604101872036F01AFC46F65E01C0F24101542036F013FC46F66F01C0F24101562086
S2240C768036F00CFC46F66901C0F24101812036F005FC46F66801C0F24101802036F0FEFBF1
S2240C76A085200DF1160136F0F9FBBDF8160000EE100AB8EE400A9FEDCA1A20EE010A46F261
S2240C76C0DC70C0F2410080ED000A46F67F01C0F24101862036F0E2FB46F67A01C0F24101DF
S2240C76E0492036F0DBFB4A200DF1150136F0D6FB9DF8150033F0F2FE41EC100B9FEDAE1B45
S2240C770053EC112B51EC100B21F0D4FD41EC100B51EC100B2CF00CFE00EE100A9FEDB11A7E
S2240C772030EE010A46F2D470C0F2410080ED000A46F63901C0F24101482036F0AFFB46F64B
S2240C77407D01C0F24101882036F0A8FB46F67601C0F24101582036F0A1FB46F67201C0F2F3
S2240C77604101822036F09AFB46F63B01C0F24101832036F093FB46F64F01C0F24101842072
S2240C778036F08CFB46F67E01C0F241018A2036F085FB46F66001C0F241015E2036F07EFB7E
S2240C77A046F65901C0F241015F2036F077FB46F67101C0F24101602036F070FB46F66D01BA
